{
	"multiSig.sol": {
		"MultiSignatureWallet": {
			"abi": [
				{
					"inputs": [
						{
							"internalType": "address",
							"name": "newOwner",
							"type": "address"
						}
					],
					"name": "addOwners",
					"outputs": [],
					"stateMutability": "nonpayable",
					"type": "function"
				},
				{
					"inputs": [],
					"name": "approveWithdrawal",
					"outputs": [],
					"stateMutability": "payable",
					"type": "function"
				},
				{
					"inputs": [],
					"name": "deposit",
					"outputs": [],
					"stateMutability": "payable",
					"type": "function"
				},
				{
					"inputs": [],
					"name": "getApprovalLimit",
					"outputs": [
						{
							"internalType": "uint256",
							"name": "",
							"type": "uint256"
						}
					],
					"stateMutability": "view",
					"type": "function"
				},
				{
					"inputs": [],
					"name": "getOwners",
					"outputs": [
						{
							"internalType": "address[]",
							"name": "",
							"type": "address[]"
						}
					],
					"stateMutability": "view",
					"type": "function"
				},
				{
					"inputs": [],
					"name": "getWalletBalance",
					"outputs": [
						{
							"internalType": "uint256",
							"name": "",
							"type": "uint256"
						}
					],
					"stateMutability": "view",
					"type": "function"
				},
				{
					"inputs": [
						{
							"internalType": "uint256",
							"name": "newLimit",
							"type": "uint256"
						}
					],
					"name": "setApprovalLimit",
					"outputs": [],
					"stateMutability": "nonpayable",
					"type": "function"
				},
				{
					"inputs": [
						{
							"internalType": "address payable",
							"name": "recipient",
							"type": "address"
						},
						{
							"internalType": "uint256",
							"name": "amount",
							"type": "uint256"
						}
					],
					"name": "withdraw",
					"outputs": [],
					"stateMutability": "payable",
					"type": "function"
				},
				{
					"inputs": [],
					"name": "withrawalStatus",
					"outputs": [
						{
							"internalType": "string",
							"name": "",
							"type": "string"
						}
					],
					"stateMutability": "view",
					"type": "function"
				}
			],
			"devdoc": {
				"kind": "dev",
				"methods": {},
				"version": 1
			},
			"evm": {
				"assembly": "    /* \"multiSig.sol\":25:2809  contract MultiSignatureWallet {... */\n  mstore(0x40, 0x80)\n    /* \"multiSig.sol\":87:97  msg.sender */\n  caller\n    /* \"multiSig.sol\":62:97  address contractHolder = msg.sender */\n  0x00\n  dup1\n  0x0100\n  exp\n  dup2\n  sload\n  dup2\n  0xffffffffffffffffffffffffffffffffffffffff\n  mul\n  not\n  and\n  swap1\n  dup4\n  0xffffffffffffffffffffffffffffffffffffffff\n  and\n  mul\n  or\n  swap1\n  sstore\n  pop\n    /* \"multiSig.sol\":408:413  false */\n  0x00\n    /* \"multiSig.sol\":387:413  bool requestActive = false */\n  0x09\n  exp(0x0100, 0x00)\n  dup2\n  sload\n  dup2\n  0xff\n  mul\n  not\n  and\n  swap1\n  dup4\n  iszero\n  iszero\n  mul\n  or\n  swap1\n  sstore\n  pop\n    /* \"multiSig.sol\":25:2809  contract MultiSignatureWallet {... */\n  callvalue\n  dup1\n  iszero\n  tag_1\n  jumpi\n  0x00\n  dup1\n  revert\ntag_1:\n  pop\n  dataSize(sub_0)\n  dup1\n  dataOffset(sub_0)\n  0x00\n  codecopy\n  0x00\n  return\nstop\n\nsub_0: assembly {\n        /* \"multiSig.sol\":25:2809  contract MultiSignatureWallet {... */\n      mstore(0x40, 0x80)\n      jumpi(tag_1, lt(calldatasize, 0x04))\n      shr(0xe0, calldataload(0x00))\n      dup1\n      0x7278a1fa\n      gt\n      tag_11\n      jumpi\n      dup1\n      0x7278a1fa\n      eq\n      tag_6\n      jumpi\n      dup1\n      0x74da612b\n      eq\n      tag_7\n      jumpi\n      dup1\n      0xa0e67e2b\n      eq\n      tag_8\n      jumpi\n      dup1\n      0xd0e30db0\n      eq\n      tag_9\n      jumpi\n      dup1\n      0xf3fef3a3\n      eq\n      tag_10\n      jumpi\n      jump(tag_1)\n    tag_11:\n      dup1\n      0x16a4bc2b\n      eq\n      tag_2\n      jumpi\n      dup1\n      0x2c8b8bb3\n      eq\n      tag_3\n      jumpi\n      dup1\n      0x329a27e7\n      eq\n      tag_4\n      jumpi\n      dup1\n      0x5f3b1f3b\n      eq\n      tag_5\n      jumpi\n    tag_1:\n      0x00\n      dup1\n      revert\n        /* \"multiSig.sol\":2511:2806  function withrawalStatus() public view returns(string memory) {... */\n    tag_2:\n      callvalue\n      dup1\n      iszero\n      tag_12\n      jumpi\n      0x00\n      dup1\n      revert\n    tag_12:\n      pop\n      tag_13\n      tag_14\n      jump\t// in\n    tag_13:\n      mload(0x40)\n      tag_15\n      swap2\n      swap1\n      tag_16\n      jump\t// in\n    tag_15:\n      mload(0x40)\n      dup1\n      swap2\n      sub\n      swap1\n      return\n        /* \"multiSig.sol\":2039:2505  function approveWithdrawal() public payable{... */\n    tag_3:\n      tag_17\n      tag_18\n      jump\t// in\n    tag_17:\n      stop\n        /* \"multiSig.sol\":1044:1130  function getWalletBalance() public view returns(uint) {... */\n    tag_4:\n      callvalue\n      dup1\n      iszero\n      tag_19\n      jumpi\n      0x00\n      dup1\n      revert\n    tag_19:\n      pop\n      tag_20\n      tag_21\n      jump\t// in\n    tag_20:\n      mload(0x40)\n      tag_22\n      swap2\n      swap1\n      tag_23\n      jump\t// in\n    tag_22:\n      mload(0x40)\n      dup1\n      swap2\n      sub\n      swap1\n      return\n        /* \"multiSig.sol\":420:750  function addOwners(address newOwner) public{... */\n    tag_5:\n      callvalue\n      dup1\n      iszero\n      tag_24\n      jumpi\n      0x00\n      dup1\n      revert\n    tag_24:\n      pop\n      tag_25\n      0x04\n      dup1\n      calldatasize\n      sub\n      dup2\n      add\n      swap1\n      tag_26\n      swap2\n      swap1\n      tag_27\n      jump\t// in\n    tag_26:\n      tag_28\n      jump\t// in\n    tag_25:\n      stop\n        /* \"multiSig.sol\":946:1038  function getApprovalLimit() public view returns(uint) {... */\n    tag_6:\n      callvalue\n      dup1\n      iszero\n      tag_29\n      jumpi\n      0x00\n      dup1\n      revert\n    tag_29:\n      pop\n      tag_30\n      tag_31\n      jump\t// in\n    tag_30:\n      mload(0x40)\n      tag_32\n      swap2\n      swap1\n      tag_23\n      jump\t// in\n    tag_32:\n      mload(0x40)\n      dup1\n      swap2\n      sub\n      swap1\n      return\n        /* \"multiSig.sol\":851:940  function setApprovalLimit(uint newLimit) public {... */\n    tag_7:\n      callvalue\n      dup1\n      iszero\n      tag_33\n      jumpi\n      0x00\n      dup1\n      revert\n    tag_33:\n      pop\n      tag_34\n      0x04\n      dup1\n      calldatasize\n      sub\n      dup2\n      add\n      swap1\n      tag_35\n      swap2\n      swap1\n      tag_36\n      jump\t// in\n    tag_35:\n      tag_37\n      jump\t// in\n    tag_34:\n      stop\n        /* \"multiSig.sol\":756:845  function getOwners() public view returns(address[] memory){... */\n    tag_8:\n      callvalue\n      dup1\n      iszero\n      tag_38\n      jumpi\n      0x00\n      dup1\n      revert\n    tag_38:\n      pop\n      tag_39\n      tag_40\n      jump\t// in\n    tag_39:\n      mload(0x40)\n      tag_41\n      swap2\n      swap1\n      tag_42\n      jump\t// in\n    tag_41:\n      mload(0x40)\n      dup1\n      swap2\n      sub\n      swap1\n      return\n        /* \"multiSig.sol\":1136:1207  function deposit() public payable {... */\n    tag_9:\n      tag_43\n      tag_44\n      jump\t// in\n    tag_43:\n      stop\n        /* \"multiSig.sol\":1213:2033  function withdraw(address payable recipient, uint amount) public payable {... */\n    tag_10:\n      tag_45\n      0x04\n      dup1\n      calldatasize\n      sub\n      dup2\n      add\n      swap1\n      tag_46\n      swap2\n      swap1\n      tag_47\n      jump\t// in\n    tag_46:\n      tag_48\n      jump\t// in\n    tag_45:\n      stop\n        /* \"multiSig.sol\":2511:2806  function withrawalStatus() public view returns(string memory) {... */\n    tag_14:\n        /* \"multiSig.sol\":2558:2571  string memory */\n      0x60\n        /* \"multiSig.sol\":2611:2612  0 */\n      0x00\n        /* \"multiSig.sol\":2591:2601  withrawals */\n      0x05\n        /* \"multiSig.sol\":2591:2608  withrawals.length */\n      dup1\n      sload\n      swap1\n      pop\n        /* \"multiSig.sol\":2591:2612  withrawals.length > 0 */\n      gt\n        /* \"multiSig.sol\":2583:2634  require(withrawals.length > 0, \"No withrawals yet\") */\n      tag_50\n      jumpi\n      mload(0x40)\n      0x08c379a000000000000000000000000000000000000000000000000000000000\n      dup2\n      mstore\n      0x04\n      add\n      tag_51\n      swap1\n      tag_52\n      jump\t// in\n    tag_51:\n      mload(0x40)\n      dup1\n      swap2\n      sub\n      swap1\n      revert\n    tag_50:\n        /* \"multiSig.sol\":2665:2669  true */\n      0x01\n        /* \"multiSig.sol\":2648:2669  requestActive == true */\n      iszero\n      iszero\n        /* \"multiSig.sol\":2648:2661  requestActive */\n      0x09\n      0x00\n      swap1\n      sload\n      swap1\n      0x0100\n      exp\n      swap1\n      div\n      0xff\n      and\n        /* \"multiSig.sol\":2648:2669  requestActive == true */\n      iszero\n      iszero\n      sub\n        /* \"multiSig.sol\":2644:2800  if (requestActive == true) {... */\n      tag_53\n      jumpi\n        /* \"multiSig.sol\":2685:2727  return(\"Transaction waiting for approval\") */\n      mload(0x40)\n      dup1\n      0x40\n      add\n      0x40\n      mstore\n      dup1\n      0x20\n      dup2\n      mstore\n      0x20\n      add\n      0x5472616e73616374696f6e2077616974696e6720666f7220617070726f76616c\n      dup2\n      mstore\n      pop\n      swap1\n      pop\n      jump(tag_49)\n        /* \"multiSig.sol\":2644:2800  if (requestActive == true) {... */\n    tag_53:\n        /* \"multiSig.sol\":2758:2789  return(\"Transaction succesful\") */\n      mload(0x40)\n      dup1\n      0x40\n      add\n      0x40\n      mstore\n      dup1\n      0x15\n      dup2\n      mstore\n      0x20\n      add\n      0x5472616e73616374696f6e2073756363657366756c0000000000000000000000\n      dup2\n      mstore\n      pop\n      swap1\n      pop\n        /* \"multiSig.sol\":2511:2806  function withrawalStatus() public view returns(string memory) {... */\n    tag_49:\n      swap1\n      jump\t// out\n        /* \"multiSig.sol\":2039:2505  function approveWithdrawal() public payable{... */\n    tag_18:\n        /* \"multiSig.sol\":2117:2121  true */\n      0x01\n        /* \"multiSig.sol\":2100:2121  requestActive == true */\n      iszero\n      iszero\n        /* \"multiSig.sol\":2100:2113  requestActive */\n      0x09\n      0x00\n      swap1\n      sload\n      swap1\n      0x0100\n      exp\n      swap1\n      div\n      0xff\n      and\n        /* \"multiSig.sol\":2100:2121  requestActive == true */\n      iszero\n      iszero\n      eq\n        /* \"multiSig.sol\":2092:2152  require(requestActive == true, \"No transfer request active\") */\n      tag_56\n      jumpi\n      mload(0x40)\n      0x08c379a000000000000000000000000000000000000000000000000000000000\n      dup2\n      mstore\n      0x04\n      add\n      tag_57\n      swap1\n      tag_58\n      jump\t// in\n    tag_57:\n      mload(0x40)\n      dup1\n      swap2\n      sub\n      swap1\n      revert\n    tag_56:\n        /* \"multiSig.sol\":2193:2197  true */\n      0x01\n        /* \"multiSig.sol\":2170:2197  isOwner[msg.sender] == true */\n      iszero\n      iszero\n        /* \"multiSig.sol\":2170:2177  isOwner */\n      0x03\n        /* \"multiSig.sol\":2170:2189  isOwner[msg.sender] */\n      0x00\n        /* \"multiSig.sol\":2178:2188  msg.sender */\n      caller\n        /* \"multiSig.sol\":2170:2189  isOwner[msg.sender] */\n      0xffffffffffffffffffffffffffffffffffffffff\n      and\n      0xffffffffffffffffffffffffffffffffffffffff\n      and\n      dup2\n      mstore\n      0x20\n      add\n      swap1\n      dup2\n      mstore\n      0x20\n      add\n      0x00\n      keccak256\n      0x00\n      swap1\n      sload\n      swap1\n      0x0100\n      exp\n      swap1\n      div\n      0xff\n      and\n        /* \"multiSig.sol\":2170:2197  isOwner[msg.sender] == true */\n      iszero\n      iszero\n      eq\n        /* \"multiSig.sol\":2162:2237  require(isOwner[msg.sender] == true, \"You are not an owner of this wallet\") */\n      tag_59\n      jumpi\n      mload(0x40)\n      0x08c379a000000000000000000000000000000000000000000000000000000000\n      dup2\n      mstore\n      0x04\n      add\n      tag_60\n      swap1\n      tag_61\n      jump\t// in\n    tag_60:\n      mload(0x40)\n      dup1\n      swap2\n      sub\n      swap1\n      revert\n    tag_59:\n        /* \"multiSig.sol\":2269:2270  1 */\n      0x01\n        /* \"multiSig.sol\":2248:2255  request */\n      0x06\n        /* \"multiSig.sol\":2248:2265  request.approvals */\n      0x02\n      add\n      0x00\n        /* \"multiSig.sol\":2248:2270  request.approvals += 1 */\n      dup3\n      dup3\n      sload\n      tag_62\n      swap2\n      swap1\n      tag_63\n      jump\t// in\n    tag_62:\n      swap3\n      pop\n      pop\n      dup2\n      swap1\n      sstore\n      pop\n        /* \"multiSig.sol\":2305:2318  approvalLimit */\n      sload(0x01)\n        /* \"multiSig.sol\":2284:2291  request */\n      0x06\n        /* \"multiSig.sol\":2284:2301  request.approvals */\n      0x02\n      add\n      sload\n        /* \"multiSig.sol\":2284:2318  request.approvals >= approvalLimit */\n      lt\n        /* \"multiSig.sol\":2280:2499  if (request.approvals >= approvalLimit) {... */\n      tag_64\n      jumpi\n        /* \"multiSig.sol\":2334:2341  request */\n      0x06\n        /* \"multiSig.sol\":2334:2351  request.recipient */\n      0x00\n      add\n      0x00\n      swap1\n      sload\n      swap1\n      0x0100\n      exp\n      swap1\n      div\n      0xffffffffffffffffffffffffffffffffffffffff\n      and\n        /* \"multiSig.sol\":2334:2360  request.recipient.transfer */\n      0xffffffffffffffffffffffffffffffffffffffff\n      and\n        /* \"multiSig.sol\":2334:2376  request.recipient.transfer(request.amount) */\n      0x08fc\n        /* \"multiSig.sol\":2361:2368  request */\n      0x06\n        /* \"multiSig.sol\":2361:2375  request.amount */\n      0x01\n      add\n      sload\n        /* \"multiSig.sol\":2334:2376  request.recipient.transfer(request.amount) */\n      swap1\n      dup2\n      iszero\n      mul\n      swap1\n      mload(0x40)\n      0x00\n      mload(0x40)\n      dup1\n      dup4\n      sub\n      dup2\n      dup6\n      dup9\n      dup9\n      call\n      swap4\n      pop\n      pop\n      pop\n      pop\n      iszero\n      dup1\n      iszero\n      tag_66\n      jumpi\n      returndatasize\n      0x00\n      dup1\n      returndatacopy\n      revert(0x00, returndatasize)\n    tag_66:\n      pop\n        /* \"multiSig.sol\":2390:2400  withrawals */\n      0x05\n        /* \"multiSig.sol\":2406:2413  request */\n      0x06\n        /* \"multiSig.sol\":2390:2414  withrawals.push(request) */\n      swap1\n      dup1\n      0x01\n      dup2\n      sload\n      add\n      dup1\n      dup3\n      sstore\n      dup1\n      swap2\n      pop\n      pop\n      0x01\n      swap1\n      sub\n      swap1\n      0x00\n      mstore\n      keccak256(0x00, 0x20)\n      swap1\n      0x03\n      mul\n      add\n      0x00\n      swap1\n      swap2\n      swap1\n      swap2\n      swap1\n      swap2\n      pop\n      0x00\n      dup3\n      add\n      0x00\n      swap1\n      sload\n      swap1\n      0x0100\n      exp\n      swap1\n      div\n      0xffffffffffffffffffffffffffffffffffffffff\n      and\n      dup2\n      0x00\n      add\n      exp(0x0100, 0x00)\n      dup2\n      sload\n      dup2\n      0xffffffffffffffffffffffffffffffffffffffff\n      mul\n      not\n      and\n      swap1\n      dup4\n      0xffffffffffffffffffffffffffffffffffffffff\n      and\n      mul\n      or\n      swap1\n      sstore\n      pop\n      0x01\n      dup3\n      add\n      sload\n      dup2\n      0x01\n      add\n      sstore\n      0x02\n      dup3\n      add\n      sload\n      dup2\n      0x02\n      add\n      sstore\n      pop\n      pop\n        /* \"multiSig.sol\":2444:2449  false */\n      0x00\n        /* \"multiSig.sol\":2428:2441  requestActive */\n      0x09\n      0x00\n        /* \"multiSig.sol\":2428:2449  requestActive = false */\n      0x0100\n      exp\n      dup2\n      sload\n      dup2\n      0xff\n      mul\n      not\n      and\n      swap1\n      dup4\n      iszero\n      iszero\n      mul\n      or\n      swap1\n      sstore\n      pop\n        /* \"multiSig.sol\":2474:2481  request */\n      0x06\n        /* \"multiSig.sol\":2474:2488  request.amount */\n      0x01\n      add\n      sload\n        /* \"multiSig.sol\":2463:2470  balance */\n      0x02\n      0x00\n        /* \"multiSig.sol\":2463:2488  balance -= request.amount */\n      dup3\n      dup3\n      sload\n      tag_68\n      swap2\n      swap1\n      tag_69\n      jump\t// in\n    tag_68:\n      swap3\n      pop\n      pop\n      dup2\n      swap1\n      sstore\n      pop\n        /* \"multiSig.sol\":2280:2499  if (request.approvals >= approvalLimit) {... */\n    tag_64:\n        /* \"multiSig.sol\":2039:2505  function approveWithdrawal() public payable{... */\n      jump\t// out\n        /* \"multiSig.sol\":1044:1130  function getWalletBalance() public view returns(uint) {... */\n    tag_21:\n        /* \"multiSig.sol\":1092:1096  uint */\n      0x00\n        /* \"multiSig.sol\":1115:1122  balance */\n      sload(0x02)\n        /* \"multiSig.sol\":1108:1123  return(balance) */\n      swap1\n      pop\n        /* \"multiSig.sol\":1044:1130  function getWalletBalance() public view returns(uint) {... */\n      swap1\n      jump\t// out\n        /* \"multiSig.sol\":420:750  function addOwners(address newOwner) public{... */\n    tag_28:\n        /* \"multiSig.sol\":495:509  contractHolder */\n      0x00\n      dup1\n      sload\n      swap1\n      0x0100\n      exp\n      swap1\n      div\n      0xffffffffffffffffffffffffffffffffffffffff\n      and\n        /* \"multiSig.sol\":481:509  msg.sender == contractHolder */\n      0xffffffffffffffffffffffffffffffffffffffff\n      and\n        /* \"multiSig.sol\":481:491  msg.sender */\n      caller\n        /* \"multiSig.sol\":481:509  msg.sender == contractHolder */\n      0xffffffffffffffffffffffffffffffffffffffff\n      and\n      eq\n        /* \"multiSig.sol\":473:596  require(msg.sender == contractHolder, \"You are not the contract holder, therefore, you cannot add owners to this contract\") */\n      tag_72\n      jumpi\n      mload(0x40)\n      0x08c379a000000000000000000000000000000000000000000000000000000000\n      dup2\n      mstore\n      0x04\n      add\n      tag_73\n      swap1\n      tag_74\n      jump\t// in\n    tag_73:\n      mload(0x40)\n      dup1\n      swap2\n      sub\n      swap1\n      revert\n    tag_72:\n        /* \"multiSig.sol\":635:640  false */\n      0x00\n        /* \"multiSig.sol\":614:640  isOwner[newOwner] == false */\n      iszero\n      iszero\n        /* \"multiSig.sol\":614:621  isOwner */\n      0x03\n        /* \"multiSig.sol\":614:631  isOwner[newOwner] */\n      0x00\n        /* \"multiSig.sol\":622:630  newOwner */\n      dup4\n        /* \"multiSig.sol\":614:631  isOwner[newOwner] */\n      0xffffffffffffffffffffffffffffffffffffffff\n      and\n      0xffffffffffffffffffffffffffffffffffffffff\n      and\n      dup2\n      mstore\n      0x20\n      add\n      swap1\n      dup2\n      mstore\n      0x20\n      add\n      0x00\n      keccak256\n      0x00\n      swap1\n      sload\n      swap1\n      0x0100\n      exp\n      swap1\n      div\n      0xff\n      and\n        /* \"multiSig.sol\":614:640  isOwner[newOwner] == false */\n      iszero\n      iszero\n      eq\n        /* \"multiSig.sol\":606:677  require(isOwner[newOwner] == false, \"This address is already an owner\") */\n      tag_75\n      jumpi\n      mload(0x40)\n      0x08c379a000000000000000000000000000000000000000000000000000000000\n      dup2\n      mstore\n      0x04\n      add\n      tag_76\n      swap1\n      tag_77\n      jump\t// in\n    tag_76:\n      mload(0x40)\n      dup1\n      swap2\n      sub\n      swap1\n      revert\n    tag_75:\n        /* \"multiSig.sol\":688:694  owners */\n      0x04\n        /* \"multiSig.sol\":700:708  newOwner */\n      dup2\n        /* \"multiSig.sol\":688:709  owners.push(newOwner) */\n      swap1\n      dup1\n      0x01\n      dup2\n      sload\n      add\n      dup1\n      dup3\n      sstore\n      dup1\n      swap2\n      pop\n      pop\n      0x01\n      swap1\n      sub\n      swap1\n      0x00\n      mstore\n      keccak256(0x00, 0x20)\n      add\n      0x00\n      swap1\n      swap2\n      swap1\n      swap2\n      swap1\n      swap2\n      0x0100\n      exp\n      dup2\n      sload\n      dup2\n      0xffffffffffffffffffffffffffffffffffffffff\n      mul\n      not\n      and\n      swap1\n      dup4\n      0xffffffffffffffffffffffffffffffffffffffff\n      and\n      mul\n      or\n      swap1\n      sstore\n      pop\n        /* \"multiSig.sol\":739:743  true */\n      0x01\n        /* \"multiSig.sol\":719:726  isOwner */\n      0x03\n        /* \"multiSig.sol\":719:736  isOwner[newOwner] */\n      0x00\n        /* \"multiSig.sol\":727:735  newOwner */\n      dup4\n        /* \"multiSig.sol\":719:736  isOwner[newOwner] */\n      0xffffffffffffffffffffffffffffffffffffffff\n      and\n      0xffffffffffffffffffffffffffffffffffffffff\n      and\n      dup2\n      mstore\n      0x20\n      add\n      swap1\n      dup2\n      mstore\n      0x20\n      add\n      0x00\n      keccak256\n      0x00\n        /* \"multiSig.sol\":719:743  isOwner[newOwner] = true */\n      0x0100\n      exp\n      dup2\n      sload\n      dup2\n      0xff\n      mul\n      not\n      and\n      swap1\n      dup4\n      iszero\n      iszero\n      mul\n      or\n      swap1\n      sstore\n      pop\n        /* \"multiSig.sol\":420:750  function addOwners(address newOwner) public{... */\n      pop\n      jump\t// out\n        /* \"multiSig.sol\":946:1038  function getApprovalLimit() public view returns(uint) {... */\n    tag_31:\n        /* \"multiSig.sol\":994:998  uint */\n      0x00\n        /* \"multiSig.sol\":1017:1030  approvalLimit */\n      sload(0x01)\n        /* \"multiSig.sol\":1010:1031  return(approvalLimit) */\n      swap1\n      pop\n        /* \"multiSig.sol\":946:1038  function getApprovalLimit() public view returns(uint) {... */\n      swap1\n      jump\t// out\n        /* \"multiSig.sol\":851:940  function setApprovalLimit(uint newLimit) public {... */\n    tag_37:\n        /* \"multiSig.sol\":925:933  newLimit */\n      dup1\n        /* \"multiSig.sol\":909:922  approvalLimit */\n      0x01\n        /* \"multiSig.sol\":909:933  approvalLimit = newLimit */\n      dup2\n      swap1\n      sstore\n      pop\n        /* \"multiSig.sol\":851:940  function setApprovalLimit(uint newLimit) public {... */\n      pop\n      jump\t// out\n        /* \"multiSig.sol\":756:845  function getOwners() public view returns(address[] memory){... */\n    tag_40:\n        /* \"multiSig.sol\":797:813  address[] memory */\n      0x60\n        /* \"multiSig.sol\":831:837  owners */\n      0x04\n        /* \"multiSig.sol\":824:838  return(owners) */\n      dup1\n      sload\n      dup1\n      0x20\n      mul\n      0x20\n      add\n      mload(0x40)\n      swap1\n      dup2\n      add\n      0x40\n      mstore\n      dup1\n      swap3\n      swap2\n      swap1\n      dup2\n      dup2\n      mstore\n      0x20\n      add\n      dup3\n      dup1\n      sload\n      dup1\n      iszero\n      tag_82\n      jumpi\n      0x20\n      mul\n      dup3\n      add\n      swap2\n      swap1\n      0x00\n      mstore\n      keccak256(0x00, 0x20)\n      swap1\n    tag_83:\n      dup2\n      0x00\n      swap1\n      sload\n      swap1\n      0x0100\n      exp\n      swap1\n      div\n      0xffffffffffffffffffffffffffffffffffffffff\n      and\n      0xffffffffffffffffffffffffffffffffffffffff\n      and\n      dup2\n      mstore\n      0x20\n      add\n      swap1\n      0x01\n      add\n      swap1\n      dup1\n      dup4\n      gt\n      tag_83\n      jumpi\n    tag_82:\n      pop\n      pop\n      pop\n      pop\n      pop\n      swap1\n      pop\n        /* \"multiSig.sol\":756:845  function getOwners() public view returns(address[] memory){... */\n      swap1\n      jump\t// out\n        /* \"multiSig.sol\":1136:1207  function deposit() public payable {... */\n    tag_44:\n        /* \"multiSig.sol\":1191:1200  msg.value */\n      callvalue\n        /* \"multiSig.sol\":1180:1187  balance */\n      0x02\n      0x00\n        /* \"multiSig.sol\":1180:1200  balance += msg.value */\n      dup3\n      dup3\n      sload\n      tag_85\n      swap2\n      swap1\n      tag_63\n      jump\t// in\n    tag_85:\n      swap3\n      pop\n      pop\n      dup2\n      swap1\n      sstore\n      pop\n        /* \"multiSig.sol\":1136:1207  function deposit() public payable {... */\n      jump\t// out\n        /* \"multiSig.sol\":1213:2033  function withdraw(address payable recipient, uint amount) public payable {... */\n    tag_48:\n        /* \"multiSig.sol\":1327:1331  true */\n      0x01\n        /* \"multiSig.sol\":1304:1331  isOwner[msg.sender] == true */\n      iszero\n      iszero\n        /* \"multiSig.sol\":1304:1311  isOwner */\n      0x03\n        /* \"multiSig.sol\":1304:1323  isOwner[msg.sender] */\n      0x00\n        /* \"multiSig.sol\":1312:1322  msg.sender */\n      caller\n        /* \"multiSig.sol\":1304:1323  isOwner[msg.sender] */\n      0xffffffffffffffffffffffffffffffffffffffff\n      and\n      0xffffffffffffffffffffffffffffffffffffffff\n      and\n      dup2\n      mstore\n      0x20\n      add\n      swap1\n      dup2\n      mstore\n      0x20\n      add\n      0x00\n      keccak256\n      0x00\n      swap1\n      sload\n      swap1\n      0x0100\n      exp\n      swap1\n      div\n      0xff\n      and\n        /* \"multiSig.sol\":1304:1331  isOwner[msg.sender] == true */\n      iszero\n      iszero\n      eq\n        /* \"multiSig.sol\":1296:1371  require(isOwner[msg.sender] == true, \"You are not an owner of this wallet\") */\n      tag_87\n      jumpi\n      mload(0x40)\n      0x08c379a000000000000000000000000000000000000000000000000000000000\n      dup2\n      mstore\n      0x04\n      add\n      tag_88\n      swap1\n      tag_61\n      jump\t// in\n    tag_88:\n      mload(0x40)\n      dup1\n      swap2\n      sub\n      swap1\n      revert\n    tag_87:\n        /* \"multiSig.sol\":1399:1406  balance */\n      sload(0x02)\n        /* \"multiSig.sol\":1389:1395  amount */\n      dup2\n        /* \"multiSig.sol\":1389:1406  amount <= balance */\n      gt\n      iszero\n        /* \"multiSig.sol\":1381:1438  require(amount <= balance, \"Insuficient funds in wallet\") */\n      tag_89\n      jumpi\n      mload(0x40)\n      0x08c379a000000000000000000000000000000000000000000000000000000000\n      dup2\n      mstore\n      0x04\n      add\n      tag_90\n      swap1\n      tag_91\n      jump\t// in\n    tag_90:\n      mload(0x40)\n      dup1\n      swap2\n      sub\n      swap1\n      revert\n    tag_89:\n        /* \"multiSig.sol\":1470:1479  recipient */\n      dup2\n        /* \"multiSig.sol\":1456:1479  msg.sender != recipient */\n      0xffffffffffffffffffffffffffffffffffffffff\n      and\n        /* \"multiSig.sol\":1456:1466  msg.sender */\n      caller\n        /* \"multiSig.sol\":1456:1479  msg.sender != recipient */\n      0xffffffffffffffffffffffffffffffffffffffff\n      and\n      sub\n        /* \"multiSig.sol\":1448:1528  require(msg.sender != recipient, \"You cannot transfer money to your own wallet\") */\n      tag_92\n      jumpi\n      mload(0x40)\n      0x08c379a000000000000000000000000000000000000000000000000000000000\n      dup2\n      mstore\n      0x04\n      add\n      tag_93\n      swap1\n      tag_94\n      jump\t// in\n    tag_93:\n      mload(0x40)\n      dup1\n      swap2\n      sub\n      swap1\n      revert\n    tag_92:\n        /* \"multiSig.sol\":1563:1568  false */\n      0x00\n        /* \"multiSig.sol\":1546:1568  requestActive == false */\n      iszero\n      iszero\n        /* \"multiSig.sol\":1546:1559  requestActive */\n      0x09\n      0x00\n      swap1\n      sload\n      swap1\n      0x0100\n      exp\n      swap1\n      div\n      0xff\n      and\n        /* \"multiSig.sol\":1546:1568  requestActive == false */\n      iszero\n      iszero\n      eq\n        /* \"multiSig.sol\":1538:1604  require(requestActive == false, \"Transfer approval still pending\") */\n      tag_95\n      jumpi\n      mload(0x40)\n      0x08c379a000000000000000000000000000000000000000000000000000000000\n      dup2\n      mstore\n      0x04\n      add\n      tag_96\n      swap1\n      tag_97\n      jump\t// in\n    tag_96:\n      mload(0x40)\n      dup1\n      swap2\n      sub\n      swap1\n      revert\n    tag_95:\n        /* \"multiSig.sol\":1636:1637  0 */\n      0x00\n        /* \"multiSig.sol\":1619:1632  approvalLimit */\n      sload(0x01)\n        /* \"multiSig.sol\":1619:1637  approvalLimit == 0 */\n      sub\n        /* \"multiSig.sol\":1615:2027  if (approvalLimit == 0) {... */\n      tag_98\n      jumpi\n        /* \"multiSig.sol\":1653:1662  recipient */\n      dup2\n        /* \"multiSig.sol\":1653:1671  recipient.transfer */\n      0xffffffffffffffffffffffffffffffffffffffff\n      and\n        /* \"multiSig.sol\":1653:1679  recipient.transfer(amount) */\n      0x08fc\n        /* \"multiSig.sol\":1672:1678  amount */\n      dup3\n        /* \"multiSig.sol\":1653:1679  recipient.transfer(amount) */\n      swap1\n      dup2\n      iszero\n      mul\n      swap1\n      mload(0x40)\n      0x00\n      mload(0x40)\n      dup1\n      dup4\n      sub\n      dup2\n      dup6\n      dup9\n      dup9\n      call\n      swap4\n      pop\n      pop\n      pop\n      pop\n      iszero\n      dup1\n      iszero\n      tag_100\n      jumpi\n      returndatasize\n      0x00\n      dup1\n      returndatacopy\n      revert(0x00, returndatasize)\n    tag_100:\n      pop\n        /* \"multiSig.sol\":1693:1729  TransferRequest memory newWithdrawal */\n      0x00\n        /* \"multiSig.sol\":1732:1769  TransferRequest(recipient, amount, 0) */\n      mload(0x40)\n      dup1\n      0x60\n      add\n      0x40\n      mstore\n      dup1\n        /* \"multiSig.sol\":1748:1757  recipient */\n      dup5\n        /* \"multiSig.sol\":1732:1769  TransferRequest(recipient, amount, 0) */\n      0xffffffffffffffffffffffffffffffffffffffff\n      and\n      dup2\n      mstore\n      0x20\n      add\n        /* \"multiSig.sol\":1759:1765  amount */\n      dup4\n        /* \"multiSig.sol\":1732:1769  TransferRequest(recipient, amount, 0) */\n      dup2\n      mstore\n      0x20\n      add\n        /* \"multiSig.sol\":1767:1768  0 */\n      0x00\n        /* \"multiSig.sol\":1732:1769  TransferRequest(recipient, amount, 0) */\n      dup2\n      mstore\n      pop\n        /* \"multiSig.sol\":1693:1769  TransferRequest memory newWithdrawal = TransferRequest(recipient, amount, 0) */\n      swap1\n      pop\n        /* \"multiSig.sol\":1783:1793  withrawals */\n      0x05\n        /* \"multiSig.sol\":1799:1812  newWithdrawal */\n      dup2\n        /* \"multiSig.sol\":1783:1813  withrawals.push(newWithdrawal) */\n      swap1\n      dup1\n      0x01\n      dup2\n      sload\n      add\n      dup1\n      dup3\n      sstore\n      dup1\n      swap2\n      pop\n      pop\n      0x01\n      swap1\n      sub\n      swap1\n      0x00\n      mstore\n      keccak256(0x00, 0x20)\n      swap1\n      0x03\n      mul\n      add\n      0x00\n      swap1\n      swap2\n      swap1\n      swap2\n      swap1\n      swap2\n      pop\n      0x00\n      dup3\n      add\n      mload\n      dup2\n      0x00\n      add\n      exp(0x0100, 0x00)\n      dup2\n      sload\n      dup2\n      0xffffffffffffffffffffffffffffffffffffffff\n      mul\n      not\n      and\n      swap1\n      dup4\n      0xffffffffffffffffffffffffffffffffffffffff\n      and\n      mul\n      or\n      swap1\n      sstore\n      pop\n      0x20\n      dup3\n      add\n      mload\n      dup2\n      0x01\n      add\n      sstore\n      0x40\n      dup3\n      add\n      mload\n      dup2\n      0x02\n      add\n      sstore\n      pop\n      pop\n        /* \"multiSig.sol\":1838:1844  amount */\n      dup2\n        /* \"multiSig.sol\":1827:1834  balance */\n      0x02\n      0x00\n        /* \"multiSig.sol\":1827:1844  balance -= amount */\n      dup3\n      dup3\n      sload\n      tag_102\n      swap2\n      swap1\n      tag_69\n      jump\t// in\n    tag_102:\n      swap3\n      pop\n      pop\n      dup2\n      swap1\n      sstore\n      pop\n        /* \"multiSig.sol\":1639:1855  {... */\n      pop\n        /* \"multiSig.sol\":1615:2027  if (approvalLimit == 0) {... */\n      jump(tag_103)\n    tag_98:\n        /* \"multiSig.sol\":1875:1908  TransferRequest memory newRequest */\n      0x00\n        /* \"multiSig.sol\":1911:1948  TransferRequest(recipient, amount, 0) */\n      mload(0x40)\n      dup1\n      0x60\n      add\n      0x40\n      mstore\n      dup1\n        /* \"multiSig.sol\":1927:1936  recipient */\n      dup5\n        /* \"multiSig.sol\":1911:1948  TransferRequest(recipient, amount, 0) */\n      0xffffffffffffffffffffffffffffffffffffffff\n      and\n      dup2\n      mstore\n      0x20\n      add\n        /* \"multiSig.sol\":1938:1944  amount */\n      dup4\n        /* \"multiSig.sol\":1911:1948  TransferRequest(recipient, amount, 0) */\n      dup2\n      mstore\n      0x20\n      add\n        /* \"multiSig.sol\":1946:1947  0 */\n      0x00\n        /* \"multiSig.sol\":1911:1948  TransferRequest(recipient, amount, 0) */\n      dup2\n      mstore\n      pop\n        /* \"multiSig.sol\":1875:1948  TransferRequest memory newRequest = TransferRequest(recipient, amount, 0) */\n      swap1\n      pop\n        /* \"multiSig.sol\":1978:1982  true */\n      0x01\n        /* \"multiSig.sol\":1962:1975  requestActive */\n      0x09\n      0x00\n        /* \"multiSig.sol\":1962:1982  requestActive = true */\n      0x0100\n      exp\n      dup2\n      sload\n      dup2\n      0xff\n      mul\n      not\n      and\n      swap1\n      dup4\n      iszero\n      iszero\n      mul\n      or\n      swap1\n      sstore\n      pop\n        /* \"multiSig.sol\":2006:2016  newRequest */\n      dup1\n        /* \"multiSig.sol\":1996:2003  request */\n      0x06\n        /* \"multiSig.sol\":1996:2016  request = newRequest */\n      0x00\n      dup3\n      add\n      mload\n      dup2\n      0x00\n      add\n      exp(0x0100, 0x00)\n      dup2\n      sload\n      dup2\n      0xffffffffffffffffffffffffffffffffffffffff\n      mul\n      not\n      and\n      swap1\n      dup4\n      0xffffffffffffffffffffffffffffffffffffffff\n      and\n      mul\n      or\n      swap1\n      sstore\n      pop\n      0x20\n      dup3\n      add\n      mload\n      dup2\n      0x01\n      add\n      sstore\n      0x40\n      dup3\n      add\n      mload\n      dup2\n      0x02\n      add\n      sstore\n      swap1\n      pop\n      pop\n        /* \"multiSig.sol\":1861:2027  {... */\n      pop\n        /* \"multiSig.sol\":1615:2027  if (approvalLimit == 0) {... */\n    tag_103:\n        /* \"multiSig.sol\":1213:2033  function withdraw(address payable recipient, uint amount) public payable {... */\n      pop\n      pop\n      jump\t// out\n        /* \"#utility.yul\":7:106   */\n    tag_104:\n        /* \"#utility.yul\":59:65   */\n      0x00\n        /* \"#utility.yul\":93:98   */\n      dup2\n        /* \"#utility.yul\":87:99   */\n      mload\n        /* \"#utility.yul\":77:99   */\n      swap1\n      pop\n        /* \"#utility.yul\":7:106   */\n      swap2\n      swap1\n      pop\n      jump\t// out\n        /* \"#utility.yul\":112:281   */\n    tag_105:\n        /* \"#utility.yul\":196:207   */\n      0x00\n        /* \"#utility.yul\":230:236   */\n      dup3\n        /* \"#utility.yul\":225:228   */\n      dup3\n        /* \"#utility.yul\":218:237   */\n      mstore\n        /* \"#utility.yul\":270:274   */\n      0x20\n        /* \"#utility.yul\":265:268   */\n      dup3\n        /* \"#utility.yul\":261:275   */\n      add\n        /* \"#utility.yul\":246:275   */\n      swap1\n      pop\n        /* \"#utility.yul\":112:281   */\n      swap3\n      swap2\n      pop\n      pop\n      jump\t// out\n        /* \"#utility.yul\":287:533   */\n    tag_106:\n        /* \"#utility.yul\":368:369   */\n      0x00\n        /* \"#utility.yul\":378:491   */\n    tag_151:\n        /* \"#utility.yul\":392:398   */\n      dup4\n        /* \"#utility.yul\":389:390   */\n      dup2\n        /* \"#utility.yul\":386:399   */\n      lt\n        /* \"#utility.yul\":378:491   */\n      iszero\n      tag_153\n      jumpi\n        /* \"#utility.yul\":477:478   */\n      dup1\n        /* \"#utility.yul\":472:475   */\n      dup3\n        /* \"#utility.yul\":468:479   */\n      add\n        /* \"#utility.yul\":462:480   */\n      mload\n        /* \"#utility.yul\":458:459   */\n      dup2\n        /* \"#utility.yul\":453:456   */\n      dup5\n        /* \"#utility.yul\":449:460   */\n      add\n        /* \"#utility.yul\":442:481   */\n      mstore\n        /* \"#utility.yul\":414:416   */\n      0x20\n        /* \"#utility.yul\":411:412   */\n      dup2\n        /* \"#utility.yul\":407:417   */\n      add\n        /* \"#utility.yul\":402:417   */\n      swap1\n      pop\n        /* \"#utility.yul\":378:491   */\n      jump(tag_151)\n    tag_153:\n        /* \"#utility.yul\":525:526   */\n      0x00\n        /* \"#utility.yul\":516:522   */\n      dup5\n        /* \"#utility.yul\":511:514   */\n      dup5\n        /* \"#utility.yul\":507:523   */\n      add\n        /* \"#utility.yul\":500:527   */\n      mstore\n        /* \"#utility.yul\":349:533   */\n      pop\n        /* \"#utility.yul\":287:533   */\n      pop\n      pop\n      pop\n      jump\t// out\n        /* \"#utility.yul\":539:641   */\n    tag_107:\n        /* \"#utility.yul\":580:586   */\n      0x00\n        /* \"#utility.yul\":631:633   */\n      0x1f\n        /* \"#utility.yul\":627:634   */\n      not\n        /* \"#utility.yul\":622:624   */\n      0x1f\n        /* \"#utility.yul\":615:620   */\n      dup4\n        /* \"#utility.yul\":611:625   */\n      add\n        /* \"#utility.yul\":607:635   */\n      and\n        /* \"#utility.yul\":597:635   */\n      swap1\n      pop\n        /* \"#utility.yul\":539:641   */\n      swap2\n      swap1\n      pop\n      jump\t// out\n        /* \"#utility.yul\":647:1024   */\n    tag_108:\n        /* \"#utility.yul\":735:738   */\n      0x00\n        /* \"#utility.yul\":763:802   */\n      tag_156\n        /* \"#utility.yul\":796:801   */\n      dup3\n        /* \"#utility.yul\":763:802   */\n      tag_104\n      jump\t// in\n    tag_156:\n        /* \"#utility.yul\":818:889   */\n      tag_157\n        /* \"#utility.yul\":882:888   */\n      dup2\n        /* \"#utility.yul\":877:880   */\n      dup6\n        /* \"#utility.yul\":818:889   */\n      tag_105\n      jump\t// in\n    tag_157:\n        /* \"#utility.yul\":811:889   */\n      swap4\n      pop\n        /* \"#utility.yul\":898:963   */\n      tag_158\n        /* \"#utility.yul\":956:962   */\n      dup2\n        /* \"#utility.yul\":951:954   */\n      dup6\n        /* \"#utility.yul\":944:948   */\n      0x20\n        /* \"#utility.yul\":937:942   */\n      dup7\n        /* \"#utility.yul\":933:949   */\n      add\n        /* \"#utility.yul\":898:963   */\n      tag_106\n      jump\t// in\n    tag_158:\n        /* \"#utility.yul\":988:1017   */\n      tag_159\n        /* \"#utility.yul\":1010:1016   */\n      dup2\n        /* \"#utility.yul\":988:1017   */\n      tag_107\n      jump\t// in\n    tag_159:\n        /* \"#utility.yul\":983:986   */\n      dup5\n        /* \"#utility.yul\":979:1018   */\n      add\n        /* \"#utility.yul\":972:1018   */\n      swap2\n      pop\n        /* \"#utility.yul\":739:1024   */\n      pop\n        /* \"#utility.yul\":647:1024   */\n      swap3\n      swap2\n      pop\n      pop\n      jump\t// out\n        /* \"#utility.yul\":1030:1343   */\n    tag_16:\n        /* \"#utility.yul\":1143:1147   */\n      0x00\n        /* \"#utility.yul\":1181:1183   */\n      0x20\n        /* \"#utility.yul\":1170:1179   */\n      dup3\n        /* \"#utility.yul\":1166:1184   */\n      add\n        /* \"#utility.yul\":1158:1184   */\n      swap1\n      pop\n        /* \"#utility.yul\":1230:1239   */\n      dup2\n        /* \"#utility.yul\":1224:1228   */\n      dup2\n        /* \"#utility.yul\":1220:1240   */\n      sub\n        /* \"#utility.yul\":1216:1217   */\n      0x00\n        /* \"#utility.yul\":1205:1214   */\n      dup4\n        /* \"#utility.yul\":1201:1218   */\n      add\n        /* \"#utility.yul\":1194:1241   */\n      mstore\n        /* \"#utility.yul\":1258:1336   */\n      tag_161\n        /* \"#utility.yul\":1331:1335   */\n      dup2\n        /* \"#utility.yul\":1322:1328   */\n      dup5\n        /* \"#utility.yul\":1258:1336   */\n      tag_108\n      jump\t// in\n    tag_161:\n        /* \"#utility.yul\":1250:1336   */\n      swap1\n      pop\n        /* \"#utility.yul\":1030:1343   */\n      swap3\n      swap2\n      pop\n      pop\n      jump\t// out\n        /* \"#utility.yul\":1349:1426   */\n    tag_109:\n        /* \"#utility.yul\":1386:1393   */\n      0x00\n        /* \"#utility.yul\":1415:1420   */\n      dup2\n        /* \"#utility.yul\":1404:1420   */\n      swap1\n      pop\n        /* \"#utility.yul\":1349:1426   */\n      swap2\n      swap1\n      pop\n      jump\t// out\n        /* \"#utility.yul\":1432:1550   */\n    tag_110:\n        /* \"#utility.yul\":1519:1543   */\n      tag_164\n        /* \"#utility.yul\":1537:1542   */\n      dup2\n        /* \"#utility.yul\":1519:1543   */\n      tag_109\n      jump\t// in\n    tag_164:\n        /* \"#utility.yul\":1514:1517   */\n      dup3\n        /* \"#utility.yul\":1507:1544   */\n      mstore\n        /* \"#utility.yul\":1432:1550   */\n      pop\n      pop\n      jump\t// out\n        /* \"#utility.yul\":1556:1778   */\n    tag_23:\n        /* \"#utility.yul\":1649:1653   */\n      0x00\n        /* \"#utility.yul\":1687:1689   */\n      0x20\n        /* \"#utility.yul\":1676:1685   */\n      dup3\n        /* \"#utility.yul\":1672:1690   */\n      add\n        /* \"#utility.yul\":1664:1690   */\n      swap1\n      pop\n        /* \"#utility.yul\":1700:1771   */\n      tag_166\n        /* \"#utility.yul\":1768:1769   */\n      0x00\n        /* \"#utility.yul\":1757:1766   */\n      dup4\n        /* \"#utility.yul\":1753:1770   */\n      add\n        /* \"#utility.yul\":1744:1750   */\n      dup5\n        /* \"#utility.yul\":1700:1771   */\n      tag_110\n      jump\t// in\n    tag_166:\n        /* \"#utility.yul\":1556:1778   */\n      swap3\n      swap2\n      pop\n      pop\n      jump\t// out\n        /* \"#utility.yul\":1865:1982   */\n    tag_112:\n        /* \"#utility.yul\":1974:1975   */\n      0x00\n        /* \"#utility.yul\":1971:1972   */\n      dup1\n        /* \"#utility.yul\":1964:1976   */\n      revert\n        /* \"#utility.yul\":2111:2237   */\n    tag_114:\n        /* \"#utility.yul\":2148:2155   */\n      0x00\n        /* \"#utility.yul\":2188:2230   */\n      0xffffffffffffffffffffffffffffffffffffffff\n        /* \"#utility.yul\":2181:2186   */\n      dup3\n        /* \"#utility.yul\":2177:2231   */\n      and\n        /* \"#utility.yul\":2166:2231   */\n      swap1\n      pop\n        /* \"#utility.yul\":2111:2237   */\n      swap2\n      swap1\n      pop\n      jump\t// out\n        /* \"#utility.yul\":2243:2339   */\n    tag_115:\n        /* \"#utility.yul\":2280:2287   */\n      0x00\n        /* \"#utility.yul\":2309:2333   */\n      tag_172\n        /* \"#utility.yul\":2327:2332   */\n      dup3\n        /* \"#utility.yul\":2309:2333   */\n      tag_114\n      jump\t// in\n    tag_172:\n        /* \"#utility.yul\":2298:2333   */\n      swap1\n      pop\n        /* \"#utility.yul\":2243:2339   */\n      swap2\n      swap1\n      pop\n      jump\t// out\n        /* \"#utility.yul\":2345:2467   */\n    tag_116:\n        /* \"#utility.yul\":2418:2442   */\n      tag_174\n        /* \"#utility.yul\":2436:2441   */\n      dup2\n        /* \"#utility.yul\":2418:2442   */\n      tag_115\n      jump\t// in\n    tag_174:\n        /* \"#utility.yul\":2411:2416   */\n      dup2\n        /* \"#utility.yul\":2408:2443   */\n      eq\n        /* \"#utility.yul\":2398:2461   */\n      tag_175\n      jumpi\n        /* \"#utility.yul\":2457:2458   */\n      0x00\n        /* \"#utility.yul\":2454:2455   */\n      dup1\n        /* \"#utility.yul\":2447:2459   */\n      revert\n        /* \"#utility.yul\":2398:2461   */\n    tag_175:\n        /* \"#utility.yul\":2345:2467   */\n      pop\n      jump\t// out\n        /* \"#utility.yul\":2473:2612   */\n    tag_117:\n        /* \"#utility.yul\":2519:2524   */\n      0x00\n        /* \"#utility.yul\":2557:2563   */\n      dup2\n        /* \"#utility.yul\":2544:2564   */\n      calldataload\n        /* \"#utility.yul\":2535:2564   */\n      swap1\n      pop\n        /* \"#utility.yul\":2573:2606   */\n      tag_177\n        /* \"#utility.yul\":2600:2605   */\n      dup2\n        /* \"#utility.yul\":2573:2606   */\n      tag_116\n      jump\t// in\n    tag_177:\n        /* \"#utility.yul\":2473:2612   */\n      swap3\n      swap2\n      pop\n      pop\n      jump\t// out\n        /* \"#utility.yul\":2618:2947   */\n    tag_27:\n        /* \"#utility.yul\":2677:2683   */\n      0x00\n        /* \"#utility.yul\":2726:2728   */\n      0x20\n        /* \"#utility.yul\":2714:2723   */\n      dup3\n        /* \"#utility.yul\":2705:2712   */\n      dup5\n        /* \"#utility.yul\":2701:2724   */\n      sub\n        /* \"#utility.yul\":2697:2729   */\n      slt\n        /* \"#utility.yul\":2694:2813   */\n      iszero\n      tag_179\n      jumpi\n        /* \"#utility.yul\":2732:2811   */\n      tag_180\n      tag_112\n      jump\t// in\n    tag_180:\n        /* \"#utility.yul\":2694:2813   */\n    tag_179:\n        /* \"#utility.yul\":2852:2853   */\n      0x00\n        /* \"#utility.yul\":2877:2930   */\n      tag_181\n        /* \"#utility.yul\":2922:2929   */\n      dup5\n        /* \"#utility.yul\":2913:2919   */\n      dup3\n        /* \"#utility.yul\":2902:2911   */\n      dup6\n        /* \"#utility.yul\":2898:2920   */\n      add\n        /* \"#utility.yul\":2877:2930   */\n      tag_117\n      jump\t// in\n    tag_181:\n        /* \"#utility.yul\":2867:2930   */\n      swap2\n      pop\n        /* \"#utility.yul\":2823:2940   */\n      pop\n        /* \"#utility.yul\":2618:2947   */\n      swap3\n      swap2\n      pop\n      pop\n      jump\t// out\n        /* \"#utility.yul\":2953:3075   */\n    tag_118:\n        /* \"#utility.yul\":3026:3050   */\n      tag_183\n        /* \"#utility.yul\":3044:3049   */\n      dup2\n        /* \"#utility.yul\":3026:3050   */\n      tag_109\n      jump\t// in\n    tag_183:\n        /* \"#utility.yul\":3019:3024   */\n      dup2\n        /* \"#utility.yul\":3016:3051   */\n      eq\n        /* \"#utility.yul\":3006:3069   */\n      tag_184\n      jumpi\n        /* \"#utility.yul\":3065:3066   */\n      0x00\n        /* \"#utility.yul\":3062:3063   */\n      dup1\n        /* \"#utility.yul\":3055:3067   */\n      revert\n        /* \"#utility.yul\":3006:3069   */\n    tag_184:\n        /* \"#utility.yul\":2953:3075   */\n      pop\n      jump\t// out\n        /* \"#utility.yul\":3081:3220   */\n    tag_119:\n        /* \"#utility.yul\":3127:3132   */\n      0x00\n        /* \"#utility.yul\":3165:3171   */\n      dup2\n        /* \"#utility.yul\":3152:3172   */\n      calldataload\n        /* \"#utility.yul\":3143:3172   */\n      swap1\n      pop\n        /* \"#utility.yul\":3181:3214   */\n      tag_186\n        /* \"#utility.yul\":3208:3213   */\n      dup2\n        /* \"#utility.yul\":3181:3214   */\n      tag_118\n      jump\t// in\n    tag_186:\n        /* \"#utility.yul\":3081:3220   */\n      swap3\n      swap2\n      pop\n      pop\n      jump\t// out\n        /* \"#utility.yul\":3226:3555   */\n    tag_36:\n        /* \"#utility.yul\":3285:3291   */\n      0x00\n        /* \"#utility.yul\":3334:3336   */\n      0x20\n        /* \"#utility.yul\":3322:3331   */\n      dup3\n        /* \"#utility.yul\":3313:3320   */\n      dup5\n        /* \"#utility.yul\":3309:3332   */\n      sub\n        /* \"#utility.yul\":3305:3337   */\n      slt\n        /* \"#utility.yul\":3302:3421   */\n      iszero\n      tag_188\n      jumpi\n        /* \"#utility.yul\":3340:3419   */\n      tag_189\n      tag_112\n      jump\t// in\n    tag_189:\n        /* \"#utility.yul\":3302:3421   */\n    tag_188:\n        /* \"#utility.yul\":3460:3461   */\n      0x00\n        /* \"#utility.yul\":3485:3538   */\n      tag_190\n        /* \"#utility.yul\":3530:3537   */\n      dup5\n        /* \"#utility.yul\":3521:3527   */\n      dup3\n        /* \"#utility.yul\":3510:3519   */\n      dup6\n        /* \"#utility.yul\":3506:3528   */\n      add\n        /* \"#utility.yul\":3485:3538   */\n      tag_119\n      jump\t// in\n    tag_190:\n        /* \"#utility.yul\":3475:3538   */\n      swap2\n      pop\n        /* \"#utility.yul\":3431:3548   */\n      pop\n        /* \"#utility.yul\":3226:3555   */\n      swap3\n      swap2\n      pop\n      pop\n      jump\t// out\n        /* \"#utility.yul\":3561:3675   */\n    tag_120:\n        /* \"#utility.yul\":3628:3634   */\n      0x00\n        /* \"#utility.yul\":3662:3667   */\n      dup2\n        /* \"#utility.yul\":3656:3668   */\n      mload\n        /* \"#utility.yul\":3646:3668   */\n      swap1\n      pop\n        /* \"#utility.yul\":3561:3675   */\n      swap2\n      swap1\n      pop\n      jump\t// out\n        /* \"#utility.yul\":3681:3865   */\n    tag_121:\n        /* \"#utility.yul\":3780:3791   */\n      0x00\n        /* \"#utility.yul\":3814:3820   */\n      dup3\n        /* \"#utility.yul\":3809:3812   */\n      dup3\n        /* \"#utility.yul\":3802:3821   */\n      mstore\n        /* \"#utility.yul\":3854:3858   */\n      0x20\n        /* \"#utility.yul\":3849:3852   */\n      dup3\n        /* \"#utility.yul\":3845:3859   */\n      add\n        /* \"#utility.yul\":3830:3859   */\n      swap1\n      pop\n        /* \"#utility.yul\":3681:3865   */\n      swap3\n      swap2\n      pop\n      pop\n      jump\t// out\n        /* \"#utility.yul\":3871:4003   */\n    tag_122:\n        /* \"#utility.yul\":3938:3942   */\n      0x00\n        /* \"#utility.yul\":3961:3964   */\n      dup2\n        /* \"#utility.yul\":3953:3964   */\n      swap1\n      pop\n        /* \"#utility.yul\":3991:3995   */\n      0x20\n        /* \"#utility.yul\":3986:3989   */\n      dup3\n        /* \"#utility.yul\":3982:3996   */\n      add\n        /* \"#utility.yul\":3974:3996   */\n      swap1\n      pop\n        /* \"#utility.yul\":3871:4003   */\n      swap2\n      swap1\n      pop\n      jump\t// out\n        /* \"#utility.yul\":4009:4117   */\n    tag_123:\n        /* \"#utility.yul\":4086:4110   */\n      tag_195\n        /* \"#utility.yul\":4104:4109   */\n      dup2\n        /* \"#utility.yul\":4086:4110   */\n      tag_115\n      jump\t// in\n    tag_195:\n        /* \"#utility.yul\":4081:4084   */\n      dup3\n        /* \"#utility.yul\":4074:4111   */\n      mstore\n        /* \"#utility.yul\":4009:4117   */\n      pop\n      pop\n      jump\t// out\n        /* \"#utility.yul\":4123:4302   */\n    tag_124:\n        /* \"#utility.yul\":4192:4202   */\n      0x00\n        /* \"#utility.yul\":4213:4259   */\n      tag_197\n        /* \"#utility.yul\":4255:4258   */\n      dup4\n        /* \"#utility.yul\":4247:4253   */\n      dup4\n        /* \"#utility.yul\":4213:4259   */\n      tag_123\n      jump\t// in\n    tag_197:\n        /* \"#utility.yul\":4291:4295   */\n      0x20\n        /* \"#utility.yul\":4286:4289   */\n      dup4\n        /* \"#utility.yul\":4282:4296   */\n      add\n        /* \"#utility.yul\":4268:4296   */\n      swap1\n      pop\n        /* \"#utility.yul\":4123:4302   */\n      swap3\n      swap2\n      pop\n      pop\n      jump\t// out\n        /* \"#utility.yul\":4308:4421   */\n    tag_125:\n        /* \"#utility.yul\":4378:4382   */\n      0x00\n        /* \"#utility.yul\":4410:4414   */\n      0x20\n        /* \"#utility.yul\":4405:4408   */\n      dup3\n        /* \"#utility.yul\":4401:4415   */\n      add\n        /* \"#utility.yul\":4393:4415   */\n      swap1\n      pop\n        /* \"#utility.yul\":4308:4421   */\n      swap2\n      swap1\n      pop\n      jump\t// out\n        /* \"#utility.yul\":4457:5189   */\n    tag_126:\n        /* \"#utility.yul\":4576:4579   */\n      0x00\n        /* \"#utility.yul\":4605:4659   */\n      tag_200\n        /* \"#utility.yul\":4653:4658   */\n      dup3\n        /* \"#utility.yul\":4605:4659   */\n      tag_120\n      jump\t// in\n    tag_200:\n        /* \"#utility.yul\":4675:4761   */\n      tag_201\n        /* \"#utility.yul\":4754:4760   */\n      dup2\n        /* \"#utility.yul\":4749:4752   */\n      dup6\n        /* \"#utility.yul\":4675:4761   */\n      tag_121\n      jump\t// in\n    tag_201:\n        /* \"#utility.yul\":4668:4761   */\n      swap4\n      pop\n        /* \"#utility.yul\":4785:4841   */\n      tag_202\n        /* \"#utility.yul\":4835:4840   */\n      dup4\n        /* \"#utility.yul\":4785:4841   */\n      tag_122\n      jump\t// in\n    tag_202:\n        /* \"#utility.yul\":4864:4871   */\n      dup1\n        /* \"#utility.yul\":4895:4896   */\n      0x00\n        /* \"#utility.yul\":4880:5164   */\n    tag_203:\n        /* \"#utility.yul\":4905:4911   */\n      dup4\n        /* \"#utility.yul\":4902:4903   */\n      dup2\n        /* \"#utility.yul\":4899:4912   */\n      lt\n        /* \"#utility.yul\":4880:5164   */\n      iszero\n      tag_205\n      jumpi\n        /* \"#utility.yul\":4981:4987   */\n      dup2\n        /* \"#utility.yul\":4975:4988   */\n      mload\n        /* \"#utility.yul\":5008:5071   */\n      tag_206\n        /* \"#utility.yul\":5067:5070   */\n      dup9\n        /* \"#utility.yul\":5052:5065   */\n      dup3\n        /* \"#utility.yul\":5008:5071   */\n      tag_124\n      jump\t// in\n    tag_206:\n        /* \"#utility.yul\":5001:5071   */\n      swap8\n      pop\n        /* \"#utility.yul\":5094:5154   */\n      tag_207\n        /* \"#utility.yul\":5147:5153   */\n      dup4\n        /* \"#utility.yul\":5094:5154   */\n      tag_125\n      jump\t// in\n    tag_207:\n        /* \"#utility.yul\":5084:5154   */\n      swap3\n      pop\n        /* \"#utility.yul\":4940:5164   */\n      pop\n        /* \"#utility.yul\":4927:4928   */\n      0x01\n        /* \"#utility.yul\":4924:4925   */\n      dup2\n        /* \"#utility.yul\":4920:4929   */\n      add\n        /* \"#utility.yul\":4915:4929   */\n      swap1\n      pop\n        /* \"#utility.yul\":4880:5164   */\n      jump(tag_203)\n    tag_205:\n        /* \"#utility.yul\":4884:4898   */\n      pop\n        /* \"#utility.yul\":5180:5183   */\n      dup6\n        /* \"#utility.yul\":5173:5183   */\n      swap4\n      pop\n        /* \"#utility.yul\":4581:5189   */\n      pop\n      pop\n      pop\n        /* \"#utility.yul\":4457:5189   */\n      swap3\n      swap2\n      pop\n      pop\n      jump\t// out\n        /* \"#utility.yul\":5195:5568   */\n    tag_42:\n        /* \"#utility.yul\":5338:5342   */\n      0x00\n        /* \"#utility.yul\":5376:5378   */\n      0x20\n        /* \"#utility.yul\":5365:5374   */\n      dup3\n        /* \"#utility.yul\":5361:5379   */\n      add\n        /* \"#utility.yul\":5353:5379   */\n      swap1\n      pop\n        /* \"#utility.yul\":5425:5434   */\n      dup2\n        /* \"#utility.yul\":5419:5423   */\n      dup2\n        /* \"#utility.yul\":5415:5435   */\n      sub\n        /* \"#utility.yul\":5411:5412   */\n      0x00\n        /* \"#utility.yul\":5400:5409   */\n      dup4\n        /* \"#utility.yul\":5396:5413   */\n      add\n        /* \"#utility.yul\":5389:5436   */\n      mstore\n        /* \"#utility.yul\":5453:5561   */\n      tag_209\n        /* \"#utility.yul\":5556:5560   */\n      dup2\n        /* \"#utility.yul\":5547:5553   */\n      dup5\n        /* \"#utility.yul\":5453:5561   */\n      tag_126\n      jump\t// in\n    tag_209:\n        /* \"#utility.yul\":5445:5561   */\n      swap1\n      pop\n        /* \"#utility.yul\":5195:5568   */\n      swap3\n      swap2\n      pop\n      pop\n      jump\t// out\n        /* \"#utility.yul\":5574:5678   */\n    tag_127:\n        /* \"#utility.yul\":5619:5626   */\n      0x00\n        /* \"#utility.yul\":5648:5672   */\n      tag_211\n        /* \"#utility.yul\":5666:5671   */\n      dup3\n        /* \"#utility.yul\":5648:5672   */\n      tag_114\n      jump\t// in\n    tag_211:\n        /* \"#utility.yul\":5637:5672   */\n      swap1\n      pop\n        /* \"#utility.yul\":5574:5678   */\n      swap2\n      swap1\n      pop\n      jump\t// out\n        /* \"#utility.yul\":5684:5822   */\n    tag_128:\n        /* \"#utility.yul\":5765:5797   */\n      tag_213\n        /* \"#utility.yul\":5791:5796   */\n      dup2\n        /* \"#utility.yul\":5765:5797   */\n      tag_127\n      jump\t// in\n    tag_213:\n        /* \"#utility.yul\":5758:5763   */\n      dup2\n        /* \"#utility.yul\":5755:5798   */\n      eq\n        /* \"#utility.yul\":5745:5816   */\n      tag_214\n      jumpi\n        /* \"#utility.yul\":5812:5813   */\n      0x00\n        /* \"#utility.yul\":5809:5810   */\n      dup1\n        /* \"#utility.yul\":5802:5814   */\n      revert\n        /* \"#utility.yul\":5745:5816   */\n    tag_214:\n        /* \"#utility.yul\":5684:5822   */\n      pop\n      jump\t// out\n        /* \"#utility.yul\":5828:5983   */\n    tag_129:\n        /* \"#utility.yul\":5882:5887   */\n      0x00\n        /* \"#utility.yul\":5920:5926   */\n      dup2\n        /* \"#utility.yul\":5907:5927   */\n      calldataload\n        /* \"#utility.yul\":5898:5927   */\n      swap1\n      pop\n        /* \"#utility.yul\":5936:5977   */\n      tag_216\n        /* \"#utility.yul\":5971:5976   */\n      dup2\n        /* \"#utility.yul\":5936:5977   */\n      tag_128\n      jump\t// in\n    tag_216:\n        /* \"#utility.yul\":5828:5983   */\n      swap3\n      swap2\n      pop\n      pop\n      jump\t// out\n        /* \"#utility.yul\":5989:6479   */\n    tag_47:\n        /* \"#utility.yul\":6065:6071   */\n      0x00\n        /* \"#utility.yul\":6073:6079   */\n      dup1\n        /* \"#utility.yul\":6122:6124   */\n      0x40\n        /* \"#utility.yul\":6110:6119   */\n      dup4\n        /* \"#utility.yul\":6101:6108   */\n      dup6\n        /* \"#utility.yul\":6097:6120   */\n      sub\n        /* \"#utility.yul\":6093:6125   */\n      slt\n        /* \"#utility.yul\":6090:6209   */\n      iszero\n      tag_218\n      jumpi\n        /* \"#utility.yul\":6128:6207   */\n      tag_219\n      tag_112\n      jump\t// in\n    tag_219:\n        /* \"#utility.yul\":6090:6209   */\n    tag_218:\n        /* \"#utility.yul\":6248:6249   */\n      0x00\n        /* \"#utility.yul\":6273:6334   */\n      tag_220\n        /* \"#utility.yul\":6326:6333   */\n      dup6\n        /* \"#utility.yul\":6317:6323   */\n      dup3\n        /* \"#utility.yul\":6306:6315   */\n      dup7\n        /* \"#utility.yul\":6302:6324   */\n      add\n        /* \"#utility.yul\":6273:6334   */\n      tag_129\n      jump\t// in\n    tag_220:\n        /* \"#utility.yul\":6263:6334   */\n      swap3\n      pop\n        /* \"#utility.yul\":6219:6344   */\n      pop\n        /* \"#utility.yul\":6383:6385   */\n      0x20\n        /* \"#utility.yul\":6409:6462   */\n      tag_221\n        /* \"#utility.yul\":6454:6461   */\n      dup6\n        /* \"#utility.yul\":6445:6451   */\n      dup3\n        /* \"#utility.yul\":6434:6443   */\n      dup7\n        /* \"#utility.yul\":6430:6452   */\n      add\n        /* \"#utility.yul\":6409:6462   */\n      tag_119\n      jump\t// in\n    tag_221:\n        /* \"#utility.yul\":6399:6462   */\n      swap2\n      pop\n        /* \"#utility.yul\":6354:6472   */\n      pop\n        /* \"#utility.yul\":5989:6479   */\n      swap3\n      pop\n      swap3\n      swap1\n      pop\n      jump\t// out\n        /* \"#utility.yul\":6485:6652   */\n    tag_130:\n        /* \"#utility.yul\":6625:6644   */\n      0x4e6f2077697468726177616c7320796574000000000000000000000000000000\n        /* \"#utility.yul\":6621:6622   */\n      0x00\n        /* \"#utility.yul\":6613:6619   */\n      dup3\n        /* \"#utility.yul\":6609:6623   */\n      add\n        /* \"#utility.yul\":6602:6645   */\n      mstore\n        /* \"#utility.yul\":6485:6652   */\n      pop\n      jump\t// out\n        /* \"#utility.yul\":6658:7024   */\n    tag_131:\n        /* \"#utility.yul\":6800:6803   */\n      0x00\n        /* \"#utility.yul\":6821:6888   */\n      tag_224\n        /* \"#utility.yul\":6885:6887   */\n      0x11\n        /* \"#utility.yul\":6880:6883   */\n      dup4\n        /* \"#utility.yul\":6821:6888   */\n      tag_105\n      jump\t// in\n    tag_224:\n        /* \"#utility.yul\":6814:6888   */\n      swap2\n      pop\n        /* \"#utility.yul\":6897:6990   */\n      tag_225\n        /* \"#utility.yul\":6986:6989   */\n      dup3\n        /* \"#utility.yul\":6897:6990   */\n      tag_130\n      jump\t// in\n    tag_225:\n        /* \"#utility.yul\":7015:7017   */\n      0x20\n        /* \"#utility.yul\":7010:7013   */\n      dup3\n        /* \"#utility.yul\":7006:7018   */\n      add\n        /* \"#utility.yul\":6999:7018   */\n      swap1\n      pop\n        /* \"#utility.yul\":6658:7024   */\n      swap2\n      swap1\n      pop\n      jump\t// out\n        /* \"#utility.yul\":7030:7449   */\n    tag_52:\n        /* \"#utility.yul\":7196:7200   */\n      0x00\n        /* \"#utility.yul\":7234:7236   */\n      0x20\n        /* \"#utility.yul\":7223:7232   */\n      dup3\n        /* \"#utility.yul\":7219:7237   */\n      add\n        /* \"#utility.yul\":7211:7237   */\n      swap1\n      pop\n        /* \"#utility.yul\":7283:7292   */\n      dup2\n        /* \"#utility.yul\":7277:7281   */\n      dup2\n        /* \"#utility.yul\":7273:7293   */\n      sub\n        /* \"#utility.yul\":7269:7270   */\n      0x00\n        /* \"#utility.yul\":7258:7267   */\n      dup4\n        /* \"#utility.yul\":7254:7271   */\n      add\n        /* \"#utility.yul\":7247:7294   */\n      mstore\n        /* \"#utility.yul\":7311:7442   */\n      tag_227\n        /* \"#utility.yul\":7437:7441   */\n      dup2\n        /* \"#utility.yul\":7311:7442   */\n      tag_131\n      jump\t// in\n    tag_227:\n        /* \"#utility.yul\":7303:7442   */\n      swap1\n      pop\n        /* \"#utility.yul\":7030:7449   */\n      swap2\n      swap1\n      pop\n      jump\t// out\n        /* \"#utility.yul\":7455:7631   */\n    tag_132:\n        /* \"#utility.yul\":7595:7623   */\n      0x4e6f207472616e73666572207265717565737420616374697665000000000000\n        /* \"#utility.yul\":7591:7592   */\n      0x00\n        /* \"#utility.yul\":7583:7589   */\n      dup3\n        /* \"#utility.yul\":7579:7593   */\n      add\n        /* \"#utility.yul\":7572:7624   */\n      mstore\n        /* \"#utility.yul\":7455:7631   */\n      pop\n      jump\t// out\n        /* \"#utility.yul\":7637:8003   */\n    tag_133:\n        /* \"#utility.yul\":7779:7782   */\n      0x00\n        /* \"#utility.yul\":7800:7867   */\n      tag_230\n        /* \"#utility.yul\":7864:7866   */\n      0x1a\n        /* \"#utility.yul\":7859:7862   */\n      dup4\n        /* \"#utility.yul\":7800:7867   */\n      tag_105\n      jump\t// in\n    tag_230:\n        /* \"#utility.yul\":7793:7867   */\n      swap2\n      pop\n        /* \"#utility.yul\":7876:7969   */\n      tag_231\n        /* \"#utility.yul\":7965:7968   */\n      dup3\n        /* \"#utility.yul\":7876:7969   */\n      tag_132\n      jump\t// in\n    tag_231:\n        /* \"#utility.yul\":7994:7996   */\n      0x20\n        /* \"#utility.yul\":7989:7992   */\n      dup3\n        /* \"#utility.yul\":7985:7997   */\n      add\n        /* \"#utility.yul\":7978:7997   */\n      swap1\n      pop\n        /* \"#utility.yul\":7637:8003   */\n      swap2\n      swap1\n      pop\n      jump\t// out\n        /* \"#utility.yul\":8009:8428   */\n    tag_58:\n        /* \"#utility.yul\":8175:8179   */\n      0x00\n        /* \"#utility.yul\":8213:8215   */\n      0x20\n        /* \"#utility.yul\":8202:8211   */\n      dup3\n        /* \"#utility.yul\":8198:8216   */\n      add\n        /* \"#utility.yul\":8190:8216   */\n      swap1\n      pop\n        /* \"#utility.yul\":8262:8271   */\n      dup2\n        /* \"#utility.yul\":8256:8260   */\n      dup2\n        /* \"#utility.yul\":8252:8272   */\n      sub\n        /* \"#utility.yul\":8248:8249   */\n      0x00\n        /* \"#utility.yul\":8237:8246   */\n      dup4\n        /* \"#utility.yul\":8233:8250   */\n      add\n        /* \"#utility.yul\":8226:8273   */\n      mstore\n        /* \"#utility.yul\":8290:8421   */\n      tag_233\n        /* \"#utility.yul\":8416:8420   */\n      dup2\n        /* \"#utility.yul\":8290:8421   */\n      tag_133\n      jump\t// in\n    tag_233:\n        /* \"#utility.yul\":8282:8421   */\n      swap1\n      pop\n        /* \"#utility.yul\":8009:8428   */\n      swap2\n      swap1\n      pop\n      jump\t// out\n        /* \"#utility.yul\":8434:8656   */\n    tag_134:\n        /* \"#utility.yul\":8574:8608   */\n      0x596f7520617265206e6f7420616e206f776e6572206f6620746869732077616c\n        /* \"#utility.yul\":8570:8571   */\n      0x00\n        /* \"#utility.yul\":8562:8568   */\n      dup3\n        /* \"#utility.yul\":8558:8572   */\n      add\n        /* \"#utility.yul\":8551:8609   */\n      mstore\n        /* \"#utility.yul\":8643:8648   */\n      0x6c65740000000000000000000000000000000000000000000000000000000000\n        /* \"#utility.yul\":8638:8640   */\n      0x20\n        /* \"#utility.yul\":8630:8636   */\n      dup3\n        /* \"#utility.yul\":8626:8641   */\n      add\n        /* \"#utility.yul\":8619:8649   */\n      mstore\n        /* \"#utility.yul\":8434:8656   */\n      pop\n      jump\t// out\n        /* \"#utility.yul\":8662:9028   */\n    tag_135:\n        /* \"#utility.yul\":8804:8807   */\n      0x00\n        /* \"#utility.yul\":8825:8892   */\n      tag_236\n        /* \"#utility.yul\":8889:8891   */\n      0x23\n        /* \"#utility.yul\":8884:8887   */\n      dup4\n        /* \"#utility.yul\":8825:8892   */\n      tag_105\n      jump\t// in\n    tag_236:\n        /* \"#utility.yul\":8818:8892   */\n      swap2\n      pop\n        /* \"#utility.yul\":8901:8994   */\n      tag_237\n        /* \"#utility.yul\":8990:8993   */\n      dup3\n        /* \"#utility.yul\":8901:8994   */\n      tag_134\n      jump\t// in\n    tag_237:\n        /* \"#utility.yul\":9019:9021   */\n      0x40\n        /* \"#utility.yul\":9014:9017   */\n      dup3\n        /* \"#utility.yul\":9010:9022   */\n      add\n        /* \"#utility.yul\":9003:9022   */\n      swap1\n      pop\n        /* \"#utility.yul\":8662:9028   */\n      swap2\n      swap1\n      pop\n      jump\t// out\n        /* \"#utility.yul\":9034:9453   */\n    tag_61:\n        /* \"#utility.yul\":9200:9204   */\n      0x00\n        /* \"#utility.yul\":9238:9240   */\n      0x20\n        /* \"#utility.yul\":9227:9236   */\n      dup3\n        /* \"#utility.yul\":9223:9241   */\n      add\n        /* \"#utility.yul\":9215:9241   */\n      swap1\n      pop\n        /* \"#utility.yul\":9287:9296   */\n      dup2\n        /* \"#utility.yul\":9281:9285   */\n      dup2\n        /* \"#utility.yul\":9277:9297   */\n      sub\n        /* \"#utility.yul\":9273:9274   */\n      0x00\n        /* \"#utility.yul\":9262:9271   */\n      dup4\n        /* \"#utility.yul\":9258:9275   */\n      add\n        /* \"#utility.yul\":9251:9298   */\n      mstore\n        /* \"#utility.yul\":9315:9446   */\n      tag_239\n        /* \"#utility.yul\":9441:9445   */\n      dup2\n        /* \"#utility.yul\":9315:9446   */\n      tag_135\n      jump\t// in\n    tag_239:\n        /* \"#utility.yul\":9307:9446   */\n      swap1\n      pop\n        /* \"#utility.yul\":9034:9453   */\n      swap2\n      swap1\n      pop\n      jump\t// out\n        /* \"#utility.yul\":9459:9639   */\n    tag_136:\n        /* \"#utility.yul\":9507:9584   */\n      0x4e487b7100000000000000000000000000000000000000000000000000000000\n        /* \"#utility.yul\":9504:9505   */\n      0x00\n        /* \"#utility.yul\":9497:9585   */\n      mstore\n        /* \"#utility.yul\":9604:9608   */\n      0x11\n        /* \"#utility.yul\":9601:9602   */\n      0x04\n        /* \"#utility.yul\":9594:9609   */\n      mstore\n        /* \"#utility.yul\":9628:9632   */\n      0x24\n        /* \"#utility.yul\":9625:9626   */\n      0x00\n        /* \"#utility.yul\":9618:9633   */\n      revert\n        /* \"#utility.yul\":9645:9836   */\n    tag_63:\n        /* \"#utility.yul\":9685:9688   */\n      0x00\n        /* \"#utility.yul\":9704:9724   */\n      tag_242\n        /* \"#utility.yul\":9722:9723   */\n      dup3\n        /* \"#utility.yul\":9704:9724   */\n      tag_109\n      jump\t// in\n    tag_242:\n        /* \"#utility.yul\":9699:9724   */\n      swap2\n      pop\n        /* \"#utility.yul\":9738:9758   */\n      tag_243\n        /* \"#utility.yul\":9756:9757   */\n      dup4\n        /* \"#utility.yul\":9738:9758   */\n      tag_109\n      jump\t// in\n    tag_243:\n        /* \"#utility.yul\":9733:9758   */\n      swap3\n      pop\n        /* \"#utility.yul\":9781:9782   */\n      dup3\n        /* \"#utility.yul\":9778:9779   */\n      dup3\n        /* \"#utility.yul\":9774:9783   */\n      add\n        /* \"#utility.yul\":9767:9783   */\n      swap1\n      pop\n        /* \"#utility.yul\":9802:9805   */\n      dup1\n        /* \"#utility.yul\":9799:9800   */\n      dup3\n        /* \"#utility.yul\":9796:9806   */\n      gt\n        /* \"#utility.yul\":9793:9829   */\n      iszero\n      tag_244\n      jumpi\n        /* \"#utility.yul\":9809:9827   */\n      tag_245\n      tag_136\n      jump\t// in\n    tag_245:\n        /* \"#utility.yul\":9793:9829   */\n    tag_244:\n        /* \"#utility.yul\":9645:9836   */\n      swap3\n      swap2\n      pop\n      pop\n      jump\t// out\n        /* \"#utility.yul\":9842:10036   */\n    tag_69:\n        /* \"#utility.yul\":9882:9886   */\n      0x00\n        /* \"#utility.yul\":9902:9922   */\n      tag_247\n        /* \"#utility.yul\":9920:9921   */\n      dup3\n        /* \"#utility.yul\":9902:9922   */\n      tag_109\n      jump\t// in\n    tag_247:\n        /* \"#utility.yul\":9897:9922   */\n      swap2\n      pop\n        /* \"#utility.yul\":9936:9956   */\n      tag_248\n        /* \"#utility.yul\":9954:9955   */\n      dup4\n        /* \"#utility.yul\":9936:9956   */\n      tag_109\n      jump\t// in\n    tag_248:\n        /* \"#utility.yul\":9931:9956   */\n      swap3\n      pop\n        /* \"#utility.yul\":9980:9981   */\n      dup3\n        /* \"#utility.yul\":9977:9978   */\n      dup3\n        /* \"#utility.yul\":9973:9982   */\n      sub\n        /* \"#utility.yul\":9965:9982   */\n      swap1\n      pop\n        /* \"#utility.yul\":10004:10005   */\n      dup2\n        /* \"#utility.yul\":9998:10002   */\n      dup2\n        /* \"#utility.yul\":9995:10006   */\n      gt\n        /* \"#utility.yul\":9992:10029   */\n      iszero\n      tag_249\n      jumpi\n        /* \"#utility.yul\":10009:10027   */\n      tag_250\n      tag_136\n      jump\t// in\n    tag_250:\n        /* \"#utility.yul\":9992:10029   */\n    tag_249:\n        /* \"#utility.yul\":9842:10036   */\n      swap3\n      swap2\n      pop\n      pop\n      jump\t// out\n        /* \"#utility.yul\":10042:10348   */\n    tag_137:\n        /* \"#utility.yul\":10182:10216   */\n      0x596f7520617265206e6f742074686520636f6e747261637420686f6c6465722c\n        /* \"#utility.yul\":10178:10179   */\n      0x00\n        /* \"#utility.yul\":10170:10176   */\n      dup3\n        /* \"#utility.yul\":10166:10180   */\n      add\n        /* \"#utility.yul\":10159:10217   */\n      mstore\n        /* \"#utility.yul\":10251:10285   */\n      0x207468657265666f72652c20796f752063616e6e6f7420616464206f776e6572\n        /* \"#utility.yul\":10246:10248   */\n      0x20\n        /* \"#utility.yul\":10238:10244   */\n      dup3\n        /* \"#utility.yul\":10234:10249   */\n      add\n        /* \"#utility.yul\":10227:10286   */\n      mstore\n        /* \"#utility.yul\":10320:10340   */\n      0x7320746f207468697320636f6e74726163740000000000000000000000000000\n        /* \"#utility.yul\":10315:10317   */\n      0x40\n        /* \"#utility.yul\":10307:10313   */\n      dup3\n        /* \"#utility.yul\":10303:10318   */\n      add\n        /* \"#utility.yul\":10296:10341   */\n      mstore\n        /* \"#utility.yul\":10042:10348   */\n      pop\n      jump\t// out\n        /* \"#utility.yul\":10354:10720   */\n    tag_138:\n        /* \"#utility.yul\":10496:10499   */\n      0x00\n        /* \"#utility.yul\":10517:10584   */\n      tag_253\n        /* \"#utility.yul\":10581:10583   */\n      0x52\n        /* \"#utility.yul\":10576:10579   */\n      dup4\n        /* \"#utility.yul\":10517:10584   */\n      tag_105\n      jump\t// in\n    tag_253:\n        /* \"#utility.yul\":10510:10584   */\n      swap2\n      pop\n        /* \"#utility.yul\":10593:10686   */\n      tag_254\n        /* \"#utility.yul\":10682:10685   */\n      dup3\n        /* \"#utility.yul\":10593:10686   */\n      tag_137\n      jump\t// in\n    tag_254:\n        /* \"#utility.yul\":10711:10713   */\n      0x60\n        /* \"#utility.yul\":10706:10709   */\n      dup3\n        /* \"#utility.yul\":10702:10714   */\n      add\n        /* \"#utility.yul\":10695:10714   */\n      swap1\n      pop\n        /* \"#utility.yul\":10354:10720   */\n      swap2\n      swap1\n      pop\n      jump\t// out\n        /* \"#utility.yul\":10726:11145   */\n    tag_74:\n        /* \"#utility.yul\":10892:10896   */\n      0x00\n        /* \"#utility.yul\":10930:10932   */\n      0x20\n        /* \"#utility.yul\":10919:10928   */\n      dup3\n        /* \"#utility.yul\":10915:10933   */\n      add\n        /* \"#utility.yul\":10907:10933   */\n      swap1\n      pop\n        /* \"#utility.yul\":10979:10988   */\n      dup2\n        /* \"#utility.yul\":10973:10977   */\n      dup2\n        /* \"#utility.yul\":10969:10989   */\n      sub\n        /* \"#utility.yul\":10965:10966   */\n      0x00\n        /* \"#utility.yul\":10954:10963   */\n      dup4\n        /* \"#utility.yul\":10950:10967   */\n      add\n        /* \"#utility.yul\":10943:10990   */\n      mstore\n        /* \"#utility.yul\":11007:11138   */\n      tag_256\n        /* \"#utility.yul\":11133:11137   */\n      dup2\n        /* \"#utility.yul\":11007:11138   */\n      tag_138\n      jump\t// in\n    tag_256:\n        /* \"#utility.yul\":10999:11138   */\n      swap1\n      pop\n        /* \"#utility.yul\":10726:11145   */\n      swap2\n      swap1\n      pop\n      jump\t// out\n        /* \"#utility.yul\":11151:11333   */\n    tag_139:\n        /* \"#utility.yul\":11291:11325   */\n      0x54686973206164647265737320697320616c726561647920616e206f776e6572\n        /* \"#utility.yul\":11287:11288   */\n      0x00\n        /* \"#utility.yul\":11279:11285   */\n      dup3\n        /* \"#utility.yul\":11275:11289   */\n      add\n        /* \"#utility.yul\":11268:11326   */\n      mstore\n        /* \"#utility.yul\":11151:11333   */\n      pop\n      jump\t// out\n        /* \"#utility.yul\":11339:11705   */\n    tag_140:\n        /* \"#utility.yul\":11481:11484   */\n      0x00\n        /* \"#utility.yul\":11502:11569   */\n      tag_259\n        /* \"#utility.yul\":11566:11568   */\n      0x20\n        /* \"#utility.yul\":11561:11564   */\n      dup4\n        /* \"#utility.yul\":11502:11569   */\n      tag_105\n      jump\t// in\n    tag_259:\n        /* \"#utility.yul\":11495:11569   */\n      swap2\n      pop\n        /* \"#utility.yul\":11578:11671   */\n      tag_260\n        /* \"#utility.yul\":11667:11670   */\n      dup3\n        /* \"#utility.yul\":11578:11671   */\n      tag_139\n      jump\t// in\n    tag_260:\n        /* \"#utility.yul\":11696:11698   */\n      0x20\n        /* \"#utility.yul\":11691:11694   */\n      dup3\n        /* \"#utility.yul\":11687:11699   */\n      add\n        /* \"#utility.yul\":11680:11699   */\n      swap1\n      pop\n        /* \"#utility.yul\":11339:11705   */\n      swap2\n      swap1\n      pop\n      jump\t// out\n        /* \"#utility.yul\":11711:12130   */\n    tag_77:\n        /* \"#utility.yul\":11877:11881   */\n      0x00\n        /* \"#utility.yul\":11915:11917   */\n      0x20\n        /* \"#utility.yul\":11904:11913   */\n      dup3\n        /* \"#utility.yul\":11900:11918   */\n      add\n        /* \"#utility.yul\":11892:11918   */\n      swap1\n      pop\n        /* \"#utility.yul\":11964:11973   */\n      dup2\n        /* \"#utility.yul\":11958:11962   */\n      dup2\n        /* \"#utility.yul\":11954:11974   */\n      sub\n        /* \"#utility.yul\":11950:11951   */\n      0x00\n        /* \"#utility.yul\":11939:11948   */\n      dup4\n        /* \"#utility.yul\":11935:11952   */\n      add\n        /* \"#utility.yul\":11928:11975   */\n      mstore\n        /* \"#utility.yul\":11992:12123   */\n      tag_262\n        /* \"#utility.yul\":12118:12122   */\n      dup2\n        /* \"#utility.yul\":11992:12123   */\n      tag_140\n      jump\t// in\n    tag_262:\n        /* \"#utility.yul\":11984:12123   */\n      swap1\n      pop\n        /* \"#utility.yul\":11711:12130   */\n      swap2\n      swap1\n      pop\n      jump\t// out\n        /* \"#utility.yul\":12136:12313   */\n    tag_141:\n        /* \"#utility.yul\":12276:12305   */\n      0x496e737566696369656e742066756e647320696e2077616c6c65740000000000\n        /* \"#utility.yul\":12272:12273   */\n      0x00\n        /* \"#utility.yul\":12264:12270   */\n      dup3\n        /* \"#utility.yul\":12260:12274   */\n      add\n        /* \"#utility.yul\":12253:12306   */\n      mstore\n        /* \"#utility.yul\":12136:12313   */\n      pop\n      jump\t// out\n        /* \"#utility.yul\":12319:12685   */\n    tag_142:\n        /* \"#utility.yul\":12461:12464   */\n      0x00\n        /* \"#utility.yul\":12482:12549   */\n      tag_265\n        /* \"#utility.yul\":12546:12548   */\n      0x1b\n        /* \"#utility.yul\":12541:12544   */\n      dup4\n        /* \"#utility.yul\":12482:12549   */\n      tag_105\n      jump\t// in\n    tag_265:\n        /* \"#utility.yul\":12475:12549   */\n      swap2\n      pop\n        /* \"#utility.yul\":12558:12651   */\n      tag_266\n        /* \"#utility.yul\":12647:12650   */\n      dup3\n        /* \"#utility.yul\":12558:12651   */\n      tag_141\n      jump\t// in\n    tag_266:\n        /* \"#utility.yul\":12676:12678   */\n      0x20\n        /* \"#utility.yul\":12671:12674   */\n      dup3\n        /* \"#utility.yul\":12667:12679   */\n      add\n        /* \"#utility.yul\":12660:12679   */\n      swap1\n      pop\n        /* \"#utility.yul\":12319:12685   */\n      swap2\n      swap1\n      pop\n      jump\t// out\n        /* \"#utility.yul\":12691:13110   */\n    tag_91:\n        /* \"#utility.yul\":12857:12861   */\n      0x00\n        /* \"#utility.yul\":12895:12897   */\n      0x20\n        /* \"#utility.yul\":12884:12893   */\n      dup3\n        /* \"#utility.yul\":12880:12898   */\n      add\n        /* \"#utility.yul\":12872:12898   */\n      swap1\n      pop\n        /* \"#utility.yul\":12944:12953   */\n      dup2\n        /* \"#utility.yul\":12938:12942   */\n      dup2\n        /* \"#utility.yul\":12934:12954   */\n      sub\n        /* \"#utility.yul\":12930:12931   */\n      0x00\n        /* \"#utility.yul\":12919:12928   */\n      dup4\n        /* \"#utility.yul\":12915:12932   */\n      add\n        /* \"#utility.yul\":12908:12955   */\n      mstore\n        /* \"#utility.yul\":12972:13103   */\n      tag_268\n        /* \"#utility.yul\":13098:13102   */\n      dup2\n        /* \"#utility.yul\":12972:13103   */\n      tag_142\n      jump\t// in\n    tag_268:\n        /* \"#utility.yul\":12964:13103   */\n      swap1\n      pop\n        /* \"#utility.yul\":12691:13110   */\n      swap2\n      swap1\n      pop\n      jump\t// out\n        /* \"#utility.yul\":13116:13347   */\n    tag_143:\n        /* \"#utility.yul\":13256:13290   */\n      0x596f752063616e6e6f74207472616e73666572206d6f6e657920746f20796f75\n        /* \"#utility.yul\":13252:13253   */\n      0x00\n        /* \"#utility.yul\":13244:13250   */\n      dup3\n        /* \"#utility.yul\":13240:13254   */\n      add\n        /* \"#utility.yul\":13233:13291   */\n      mstore\n        /* \"#utility.yul\":13325:13339   */\n      0x72206f776e2077616c6c65740000000000000000000000000000000000000000\n        /* \"#utility.yul\":13320:13322   */\n      0x20\n        /* \"#utility.yul\":13312:13318   */\n      dup3\n        /* \"#utility.yul\":13308:13323   */\n      add\n        /* \"#utility.yul\":13301:13340   */\n      mstore\n        /* \"#utility.yul\":13116:13347   */\n      pop\n      jump\t// out\n        /* \"#utility.yul\":13353:13719   */\n    tag_144:\n        /* \"#utility.yul\":13495:13498   */\n      0x00\n        /* \"#utility.yul\":13516:13583   */\n      tag_271\n        /* \"#utility.yul\":13580:13582   */\n      0x2c\n        /* \"#utility.yul\":13575:13578   */\n      dup4\n        /* \"#utility.yul\":13516:13583   */\n      tag_105\n      jump\t// in\n    tag_271:\n        /* \"#utility.yul\":13509:13583   */\n      swap2\n      pop\n        /* \"#utility.yul\":13592:13685   */\n      tag_272\n        /* \"#utility.yul\":13681:13684   */\n      dup3\n        /* \"#utility.yul\":13592:13685   */\n      tag_143\n      jump\t// in\n    tag_272:\n        /* \"#utility.yul\":13710:13712   */\n      0x40\n        /* \"#utility.yul\":13705:13708   */\n      dup3\n        /* \"#utility.yul\":13701:13713   */\n      add\n        /* \"#utility.yul\":13694:13713   */\n      swap1\n      pop\n        /* \"#utility.yul\":13353:13719   */\n      swap2\n      swap1\n      pop\n      jump\t// out\n        /* \"#utility.yul\":13725:14144   */\n    tag_94:\n        /* \"#utility.yul\":13891:13895   */\n      0x00\n        /* \"#utility.yul\":13929:13931   */\n      0x20\n        /* \"#utility.yul\":13918:13927   */\n      dup3\n        /* \"#utility.yul\":13914:13932   */\n      add\n        /* \"#utility.yul\":13906:13932   */\n      swap1\n      pop\n        /* \"#utility.yul\":13978:13987   */\n      dup2\n        /* \"#utility.yul\":13972:13976   */\n      dup2\n        /* \"#utility.yul\":13968:13988   */\n      sub\n        /* \"#utility.yul\":13964:13965   */\n      0x00\n        /* \"#utility.yul\":13953:13962   */\n      dup4\n        /* \"#utility.yul\":13949:13966   */\n      add\n        /* \"#utility.yul\":13942:13989   */\n      mstore\n        /* \"#utility.yul\":14006:14137   */\n      tag_274\n        /* \"#utility.yul\":14132:14136   */\n      dup2\n        /* \"#utility.yul\":14006:14137   */\n      tag_144\n      jump\t// in\n    tag_274:\n        /* \"#utility.yul\":13998:14137   */\n      swap1\n      pop\n        /* \"#utility.yul\":13725:14144   */\n      swap2\n      swap1\n      pop\n      jump\t// out\n        /* \"#utility.yul\":14150:14331   */\n    tag_145:\n        /* \"#utility.yul\":14290:14323   */\n      0x5472616e7366657220617070726f76616c207374696c6c2070656e64696e6700\n        /* \"#utility.yul\":14286:14287   */\n      0x00\n        /* \"#utility.yul\":14278:14284   */\n      dup3\n        /* \"#utility.yul\":14274:14288   */\n      add\n        /* \"#utility.yul\":14267:14324   */\n      mstore\n        /* \"#utility.yul\":14150:14331   */\n      pop\n      jump\t// out\n        /* \"#utility.yul\":14337:14703   */\n    tag_146:\n        /* \"#utility.yul\":14479:14482   */\n      0x00\n        /* \"#utility.yul\":14500:14567   */\n      tag_277\n        /* \"#utility.yul\":14564:14566   */\n      0x1f\n        /* \"#utility.yul\":14559:14562   */\n      dup4\n        /* \"#utility.yul\":14500:14567   */\n      tag_105\n      jump\t// in\n    tag_277:\n        /* \"#utility.yul\":14493:14567   */\n      swap2\n      pop\n        /* \"#utility.yul\":14576:14669   */\n      tag_278\n        /* \"#utility.yul\":14665:14668   */\n      dup3\n        /* \"#utility.yul\":14576:14669   */\n      tag_145\n      jump\t// in\n    tag_278:\n        /* \"#utility.yul\":14694:14696   */\n      0x20\n        /* \"#utility.yul\":14689:14692   */\n      dup3\n        /* \"#utility.yul\":14685:14697   */\n      add\n        /* \"#utility.yul\":14678:14697   */\n      swap1\n      pop\n        /* \"#utility.yul\":14337:14703   */\n      swap2\n      swap1\n      pop\n      jump\t// out\n        /* \"#utility.yul\":14709:15128   */\n    tag_97:\n        /* \"#utility.yul\":14875:14879   */\n      0x00\n        /* \"#utility.yul\":14913:14915   */\n      0x20\n        /* \"#utility.yul\":14902:14911   */\n      dup3\n        /* \"#utility.yul\":14898:14916   */\n      add\n        /* \"#utility.yul\":14890:14916   */\n      swap1\n      pop\n        /* \"#utility.yul\":14962:14971   */\n      dup2\n        /* \"#utility.yul\":14956:14960   */\n      dup2\n        /* \"#utility.yul\":14952:14972   */\n      sub\n        /* \"#utility.yul\":14948:14949   */\n      0x00\n        /* \"#utility.yul\":14937:14946   */\n      dup4\n        /* \"#utility.yul\":14933:14950   */\n      add\n        /* \"#utility.yul\":14926:14973   */\n      mstore\n        /* \"#utility.yul\":14990:15121   */\n      tag_280\n        /* \"#utility.yul\":15116:15120   */\n      dup2\n        /* \"#utility.yul\":14990:15121   */\n      tag_146\n      jump\t// in\n    tag_280:\n        /* \"#utility.yul\":14982:15121   */\n      swap1\n      pop\n        /* \"#utility.yul\":14709:15128   */\n      swap2\n      swap1\n      pop\n      jump\t// out\n\n    auxdata: 0xa26469706673582212202b780a707750a47a1bceafcd0575071a046adcae508d641d5842ab2bae79a31664736f6c63430008160033\n}\n",
				"bytecode": {
					"linkReferences": {},
					"object": "6080604052335f806101000a81548173ffffffffffffffffffffffffffffffffffffffff021916908373ffffffffffffffffffffffffffffffffffffffff1602179055505f60095f6101000a81548160ff021916908315150217905550348015610067575f80fd5b5061128e806100755f395ff3fe608060405260043610610085575f3560e01c80637278a1fa116100585780637278a1fa1461010f57806374da612b14610139578063a0e67e2b14610161578063d0e30db01461018b578063f3fef3a31461019557610085565b806316a4bc2b146100895780632c8b8bb3146100b3578063329a27e7146100bd5780635f3b1f3b146100e7575b5f80fd5b348015610094575f80fd5b5061009d6101b1565b6040516100aa9190610b6e565b60405180910390f35b6100bb61028d565b005b3480156100c8575f80fd5b506100d16104e4565b6040516100de9190610ba6565b60405180910390f35b3480156100f2575f80fd5b5061010d60048036038101906101089190610c1d565b6104ed565b005b34801561011a575f80fd5b506101236106c1565b6040516101309190610ba6565b60405180910390f35b348015610144575f80fd5b5061015f600480360381019061015a9190610c72565b6106ca565b005b34801561016c575f80fd5b506101756106d4565b6040516101829190610d54565b60405180910390f35b61019361075f565b005b6101af60048036038101906101aa9190610daf565b610779565b005b60605f600580549050116101fa576040517f08c379a00000000000000000000000000000000000000000000000000000000081526004016101f190610e37565b60405180910390fd5b6001151560095f9054906101000a900460ff16151503610251576040518060400160405280602081526020017f5472616e73616374696f6e2077616974696e6720666f7220617070726f76616c815250905061028a565b6040518060400160405280601581526020017f5472616e73616374696f6e2073756363657366756c000000000000000000000081525090505b90565b6001151560095f9054906101000a900460ff161515146102e2576040517f08c379a00000000000000000000000000000000000000000000000000000000081526004016102d990610e9f565b60405180910390fd5b6001151560035f3373ffffffffffffffffffffffffffffffffffffffff1673ffffffffffffffffffffffffffffffffffffffff1681526020019081526020015f205f9054906101000a900460ff16151514610372576040517f08c379a000000000000000000000000000000000000000000000000000000000815260040161036990610f2d565b60405180910390fd5b600160066002015f8282546103879190610f78565b92505081905550600154600660020154106104e25760065f015f9054906101000a900473ffffffffffffffffffffffffffffffffffffffff1673ffffffffffffffffffffffffffffffffffffffff166108fc60066001015490811502906040515f60405180830381858888f19350505050158015610407573d5f803e3d5ffd5b5060056006908060018154018082558091505060019003905f5260205f2090600302015f909190919091505f82015f9054906101000a900473ffffffffffffffffffffffffffffffffffffffff16815f015f6101000a81548173ffffffffffffffffffffffffffffffffffffffff021916908373ffffffffffffffffffffffffffffffffffffffff160217905550600182015481600101556002820154816002015550505f60095f6101000a81548160ff02191690831515021790555060066001015460025f8282546104da9190610fab565b925050819055505b565b5f600254905090565b5f8054906101000a900473ffffffffffffffffffffffffffffffffffffffff1673ffffffffffffffffffffffffffffffffffffffff163373ffffffffffffffffffffffffffffffffffffffff161461057a576040517f08c379a000000000000000000000000000000000000000000000000000000000815260040161057190611074565b60405180910390fd5b5f151560035f8373ffffffffffffffffffffffffffffffffffffffff1673ffffffffffffffffffffffffffffffffffffffff1681526020019081526020015f205f9054906101000a900460ff16151514610609576040517f08c379a0000000000000000000000000000000000000000000000000000000008152600401610600906110dc565b60405180910390fd5b600481908060018154018082558091505060019003905f5260205f20015f9091909190916101000a81548173ffffffffffffffffffffffffffffffffffffffff021916908373ffffffffffffffffffffffffffffffffffffffff160217905550600160035f8373ffffffffffffffffffffffffffffffffffffffff1673ffffffffffffffffffffffffffffffffffffffff1681526020019081526020015f205f6101000a81548160ff02191690831515021790555050565b5f600154905090565b8060018190555050565b6060600480548060200260200160405190810160405280929190818152602001828054801561075557602002820191905f5260205f20905b815f9054906101000a900473ffffffffffffffffffffffffffffffffffffffff1673ffffffffffffffffffffffffffffffffffffffff168152602001906001019080831161070c575b5050505050905090565b3460025f8282546107709190610f78565b92505081905550565b6001151560035f3373ffffffffffffffffffffffffffffffffffffffff1673ffffffffffffffffffffffffffffffffffffffff1681526020019081526020015f205f9054906101000a900460ff16151514610809576040517f08c379a000000000000000000000000000000000000000000000000000000000815260040161080090610f2d565b60405180910390fd5b60025481111561084e576040517f08c379a000000000000000000000000000000000000000000000000000000000815260040161084590611144565b60405180910390fd5b8173ffffffffffffffffffffffffffffffffffffffff163373ffffffffffffffffffffffffffffffffffffffff16036108bc576040517f08c379a00000000000000000000000000000000000000000000000000000000081526004016108b3906111d2565b60405180910390fd5b5f151560095f9054906101000a900460ff16151514610910576040517f08c379a00000000000000000000000000000000000000000000000000000000081526004016109079061123a565b60405180910390fd5b5f60015403610a32578173ffffffffffffffffffffffffffffffffffffffff166108fc8290811502906040515f60405180830381858888f1935050505015801561095c573d5f803e3d5ffd5b505f60405180606001604052808473ffffffffffffffffffffffffffffffffffffffff1681526020018381526020015f8152509050600581908060018154018082558091505060019003905f5260205f2090600302015f909190919091505f820151815f015f6101000a81548173ffffffffffffffffffffffffffffffffffffffff021916908373ffffffffffffffffffffffffffffffffffffffff160217905550602082015181600101556040820151816002015550508160025f828254610a259190610fab565b9250508190555050610ae0565b5f60405180606001604052808473ffffffffffffffffffffffffffffffffffffffff1681526020018381526020015f8152509050600160095f6101000a81548160ff0219169083151502179055508060065f820151815f015f6101000a81548173ffffffffffffffffffffffffffffffffffffffff021916908373ffffffffffffffffffffffffffffffffffffffff1602179055506020820151816001015560408201518160020155905050505b5050565b5f81519050919050565b5f82825260208201905092915050565b5f5b83811015610b1b578082015181840152602081019050610b00565b5f8484015250505050565b5f601f19601f8301169050919050565b5f610b4082610ae4565b610b4a8185610aee565b9350610b5a818560208601610afe565b610b6381610b26565b840191505092915050565b5f6020820190508181035f830152610b868184610b36565b905092915050565b5f819050919050565b610ba081610b8e565b82525050565b5f602082019050610bb95f830184610b97565b92915050565b5f80fd5b5f73ffffffffffffffffffffffffffffffffffffffff82169050919050565b5f610bec82610bc3565b9050919050565b610bfc81610be2565b8114610c06575f80fd5b50565b5f81359050610c1781610bf3565b92915050565b5f60208284031215610c3257610c31610bbf565b5b5f610c3f84828501610c09565b91505092915050565b610c5181610b8e565b8114610c5b575f80fd5b50565b5f81359050610c6c81610c48565b92915050565b5f60208284031215610c8757610c86610bbf565b5b5f610c9484828501610c5e565b91505092915050565b5f81519050919050565b5f82825260208201905092915050565b5f819050602082019050919050565b610ccf81610be2565b82525050565b5f610ce08383610cc6565b60208301905092915050565b5f602082019050919050565b5f610d0282610c9d565b610d0c8185610ca7565b9350610d1783610cb7565b805f5b83811015610d47578151610d2e8882610cd5565b9750610d3983610cec565b925050600181019050610d1a565b5085935050505092915050565b5f6020820190508181035f830152610d6c8184610cf8565b905092915050565b5f610d7e82610bc3565b9050919050565b610d8e81610d74565b8114610d98575f80fd5b50565b5f81359050610da981610d85565b92915050565b5f8060408385031215610dc557610dc4610bbf565b5b5f610dd285828601610d9b565b9250506020610de385828601610c5e565b9150509250929050565b7f4e6f2077697468726177616c73207965740000000000000000000000000000005f82015250565b5f610e21601183610aee565b9150610e2c82610ded565b602082019050919050565b5f6020820190508181035f830152610e4e81610e15565b9050919050565b7f4e6f207472616e736665722072657175657374206163746976650000000000005f82015250565b5f610e89601a83610aee565b9150610e9482610e55565b602082019050919050565b5f6020820190508181035f830152610eb681610e7d565b9050919050565b7f596f7520617265206e6f7420616e206f776e6572206f6620746869732077616c5f8201527f6c65740000000000000000000000000000000000000000000000000000000000602082015250565b5f610f17602383610aee565b9150610f2282610ebd565b604082019050919050565b5f6020820190508181035f830152610f4481610f0b565b9050919050565b7f4e487b71000000000000000000000000000000000000000000000000000000005f52601160045260245ffd5b5f610f8282610b8e565b9150610f8d83610b8e565b9250828201905080821115610fa557610fa4610f4b565b5b92915050565b5f610fb582610b8e565b9150610fc083610b8e565b9250828203905081811115610fd857610fd7610f4b565b5b92915050565b7f596f7520617265206e6f742074686520636f6e747261637420686f6c6465722c5f8201527f207468657265666f72652c20796f752063616e6e6f7420616464206f776e657260208201527f7320746f207468697320636f6e74726163740000000000000000000000000000604082015250565b5f61105e605283610aee565b915061106982610fde565b606082019050919050565b5f6020820190508181035f83015261108b81611052565b9050919050565b7f54686973206164647265737320697320616c726561647920616e206f776e65725f82015250565b5f6110c6602083610aee565b91506110d182611092565b602082019050919050565b5f6020820190508181035f8301526110f3816110ba565b9050919050565b7f496e737566696369656e742066756e647320696e2077616c6c657400000000005f82015250565b5f61112e601b83610aee565b9150611139826110fa565b602082019050919050565b5f6020820190508181035f83015261115b81611122565b9050919050565b7f596f752063616e6e6f74207472616e73666572206d6f6e657920746f20796f755f8201527f72206f776e2077616c6c65740000000000000000000000000000000000000000602082015250565b5f6111bc602c83610aee565b91506111c782611162565b604082019050919050565b5f6020820190508181035f8301526111e9816111b0565b9050919050565b7f5472616e7366657220617070726f76616c207374696c6c2070656e64696e67005f82015250565b5f611224601f83610aee565b915061122f826111f0565b602082019050919050565b5f6020820190508181035f83015261125181611218565b905091905056fea26469706673582212202b780a707750a47a1bceafcd0575071a046adcae508d641d5842ab2bae79a31664736f6c63430008160033",
					"opcodes": "PUSH1 0x80 PUSH1 0x40 MSTORE CALLER PUSH0 DUP1 PUSH2 0x100 EXP DUP2 SLOAD DUP2 PUSH20 0xFFFFFFFFFFFFFFFFFFFFFFFFFFFFFFFFFFFFFFFF MUL NOT AND SWAP1 DUP4 PUSH20 0xFFFFFFFFFFFFFFFFFFFFFFFFFFFFFFFFFFFFFFFF AND MUL OR SWAP1 SSTORE POP PUSH0 PUSH1 0x9 PUSH0 PUSH2 0x100 EXP DUP2 SLOAD DUP2 PUSH1 0xFF MUL NOT AND SWAP1 DUP4 ISZERO ISZERO MUL OR SWAP1 SSTORE POP CALLVALUE DUP1 ISZERO PUSH2 0x67 JUMPI PUSH0 DUP1 REVERT JUMPDEST POP PUSH2 0x128E DUP1 PUSH2 0x75 PUSH0 CODECOPY PUSH0 RETURN INVALID PUSH1 0x80 PUSH1 0x40 MSTORE PUSH1 0x4 CALLDATASIZE LT PUSH2 0x85 JUMPI PUSH0 CALLDATALOAD PUSH1 0xE0 SHR DUP1 PUSH4 0x7278A1FA GT PUSH2 0x58 JUMPI DUP1 PUSH4 0x7278A1FA EQ PUSH2 0x10F JUMPI DUP1 PUSH4 0x74DA612B EQ PUSH2 0x139 JUMPI DUP1 PUSH4 0xA0E67E2B EQ PUSH2 0x161 JUMPI DUP1 PUSH4 0xD0E30DB0 EQ PUSH2 0x18B JUMPI DUP1 PUSH4 0xF3FEF3A3 EQ PUSH2 0x195 JUMPI PUSH2 0x85 JUMP JUMPDEST DUP1 PUSH4 0x16A4BC2B EQ PUSH2 0x89 JUMPI DUP1 PUSH4 0x2C8B8BB3 EQ PUSH2 0xB3 JUMPI DUP1 PUSH4 0x329A27E7 EQ PUSH2 0xBD JUMPI DUP1 PUSH4 0x5F3B1F3B EQ PUSH2 0xE7 JUMPI JUMPDEST PUSH0 DUP1 REVERT JUMPDEST CALLVALUE DUP1 ISZERO PUSH2 0x94 JUMPI PUSH0 DUP1 REVERT JUMPDEST POP PUSH2 0x9D PUSH2 0x1B1 JUMP JUMPDEST PUSH1 0x40 MLOAD PUSH2 0xAA SWAP2 SWAP1 PUSH2 0xB6E JUMP JUMPDEST PUSH1 0x40 MLOAD DUP1 SWAP2 SUB SWAP1 RETURN JUMPDEST PUSH2 0xBB PUSH2 0x28D JUMP JUMPDEST STOP JUMPDEST CALLVALUE DUP1 ISZERO PUSH2 0xC8 JUMPI PUSH0 DUP1 REVERT JUMPDEST POP PUSH2 0xD1 PUSH2 0x4E4 JUMP JUMPDEST PUSH1 0x40 MLOAD PUSH2 0xDE SWAP2 SWAP1 PUSH2 0xBA6 JUMP JUMPDEST PUSH1 0x40 MLOAD DUP1 SWAP2 SUB SWAP1 RETURN JUMPDEST CALLVALUE DUP1 ISZERO PUSH2 0xF2 JUMPI PUSH0 DUP1 REVERT JUMPDEST POP PUSH2 0x10D PUSH1 0x4 DUP1 CALLDATASIZE SUB DUP2 ADD SWAP1 PUSH2 0x108 SWAP2 SWAP1 PUSH2 0xC1D JUMP JUMPDEST PUSH2 0x4ED JUMP JUMPDEST STOP JUMPDEST CALLVALUE DUP1 ISZERO PUSH2 0x11A JUMPI PUSH0 DUP1 REVERT JUMPDEST POP PUSH2 0x123 PUSH2 0x6C1 JUMP JUMPDEST PUSH1 0x40 MLOAD PUSH2 0x130 SWAP2 SWAP1 PUSH2 0xBA6 JUMP JUMPDEST PUSH1 0x40 MLOAD DUP1 SWAP2 SUB SWAP1 RETURN JUMPDEST CALLVALUE DUP1 ISZERO PUSH2 0x144 JUMPI PUSH0 DUP1 REVERT JUMPDEST POP PUSH2 0x15F PUSH1 0x4 DUP1 CALLDATASIZE SUB DUP2 ADD SWAP1 PUSH2 0x15A SWAP2 SWAP1 PUSH2 0xC72 JUMP JUMPDEST PUSH2 0x6CA JUMP JUMPDEST STOP JUMPDEST CALLVALUE DUP1 ISZERO PUSH2 0x16C JUMPI PUSH0 DUP1 REVERT JUMPDEST POP PUSH2 0x175 PUSH2 0x6D4 JUMP JUMPDEST PUSH1 0x40 MLOAD PUSH2 0x182 SWAP2 SWAP1 PUSH2 0xD54 JUMP JUMPDEST PUSH1 0x40 MLOAD DUP1 SWAP2 SUB SWAP1 RETURN JUMPDEST PUSH2 0x193 PUSH2 0x75F JUMP JUMPDEST STOP JUMPDEST PUSH2 0x1AF PUSH1 0x4 DUP1 CALLDATASIZE SUB DUP2 ADD SWAP1 PUSH2 0x1AA SWAP2 SWAP1 PUSH2 0xDAF JUMP JUMPDEST PUSH2 0x779 JUMP JUMPDEST STOP JUMPDEST PUSH1 0x60 PUSH0 PUSH1 0x5 DUP1 SLOAD SWAP1 POP GT PUSH2 0x1FA JUMPI PUSH1 0x40 MLOAD PUSH32 0x8C379A000000000000000000000000000000000000000000000000000000000 DUP2 MSTORE PUSH1 0x4 ADD PUSH2 0x1F1 SWAP1 PUSH2 0xE37 JUMP JUMPDEST PUSH1 0x40 MLOAD DUP1 SWAP2 SUB SWAP1 REVERT JUMPDEST PUSH1 0x1 ISZERO ISZERO PUSH1 0x9 PUSH0 SWAP1 SLOAD SWAP1 PUSH2 0x100 EXP SWAP1 DIV PUSH1 0xFF AND ISZERO ISZERO SUB PUSH2 0x251 JUMPI PUSH1 0x40 MLOAD DUP1 PUSH1 0x40 ADD PUSH1 0x40 MSTORE DUP1 PUSH1 0x20 DUP2 MSTORE PUSH1 0x20 ADD PUSH32 0x5472616E73616374696F6E2077616974696E6720666F7220617070726F76616C DUP2 MSTORE POP SWAP1 POP PUSH2 0x28A JUMP JUMPDEST PUSH1 0x40 MLOAD DUP1 PUSH1 0x40 ADD PUSH1 0x40 MSTORE DUP1 PUSH1 0x15 DUP2 MSTORE PUSH1 0x20 ADD PUSH32 0x5472616E73616374696F6E2073756363657366756C0000000000000000000000 DUP2 MSTORE POP SWAP1 POP JUMPDEST SWAP1 JUMP JUMPDEST PUSH1 0x1 ISZERO ISZERO PUSH1 0x9 PUSH0 SWAP1 SLOAD SWAP1 PUSH2 0x100 EXP SWAP1 DIV PUSH1 0xFF AND ISZERO ISZERO EQ PUSH2 0x2E2 JUMPI PUSH1 0x40 MLOAD PUSH32 0x8C379A000000000000000000000000000000000000000000000000000000000 DUP2 MSTORE PUSH1 0x4 ADD PUSH2 0x2D9 SWAP1 PUSH2 0xE9F JUMP JUMPDEST PUSH1 0x40 MLOAD DUP1 SWAP2 SUB SWAP1 REVERT JUMPDEST PUSH1 0x1 ISZERO ISZERO PUSH1 0x3 PUSH0 CALLER PUSH20 0xFFFFFFFFFFFFFFFFFFFFFFFFFFFFFFFFFFFFFFFF AND PUSH20 0xFFFFFFFFFFFFFFFFFFFFFFFFFFFFFFFFFFFFFFFF AND DUP2 MSTORE PUSH1 0x20 ADD SWAP1 DUP2 MSTORE PUSH1 0x20 ADD PUSH0 KECCAK256 PUSH0 SWAP1 SLOAD SWAP1 PUSH2 0x100 EXP SWAP1 DIV PUSH1 0xFF AND ISZERO ISZERO EQ PUSH2 0x372 JUMPI PUSH1 0x40 MLOAD PUSH32 0x8C379A000000000000000000000000000000000000000000000000000000000 DUP2 MSTORE PUSH1 0x4 ADD PUSH2 0x369 SWAP1 PUSH2 0xF2D JUMP JUMPDEST PUSH1 0x40 MLOAD DUP1 SWAP2 SUB SWAP1 REVERT JUMPDEST PUSH1 0x1 PUSH1 0x6 PUSH1 0x2 ADD PUSH0 DUP3 DUP3 SLOAD PUSH2 0x387 SWAP2 SWAP1 PUSH2 0xF78 JUMP JUMPDEST SWAP3 POP POP DUP2 SWAP1 SSTORE POP PUSH1 0x1 SLOAD PUSH1 0x6 PUSH1 0x2 ADD SLOAD LT PUSH2 0x4E2 JUMPI PUSH1 0x6 PUSH0 ADD PUSH0 SWAP1 SLOAD SWAP1 PUSH2 0x100 EXP SWAP1 DIV PUSH20 0xFFFFFFFFFFFFFFFFFFFFFFFFFFFFFFFFFFFFFFFF AND PUSH20 0xFFFFFFFFFFFFFFFFFFFFFFFFFFFFFFFFFFFFFFFF AND PUSH2 0x8FC PUSH1 0x6 PUSH1 0x1 ADD SLOAD SWAP1 DUP2 ISZERO MUL SWAP1 PUSH1 0x40 MLOAD PUSH0 PUSH1 0x40 MLOAD DUP1 DUP4 SUB DUP2 DUP6 DUP9 DUP9 CALL SWAP4 POP POP POP POP ISZERO DUP1 ISZERO PUSH2 0x407 JUMPI RETURNDATASIZE PUSH0 DUP1 RETURNDATACOPY RETURNDATASIZE PUSH0 REVERT JUMPDEST POP PUSH1 0x5 PUSH1 0x6 SWAP1 DUP1 PUSH1 0x1 DUP2 SLOAD ADD DUP1 DUP3 SSTORE DUP1 SWAP2 POP POP PUSH1 0x1 SWAP1 SUB SWAP1 PUSH0 MSTORE PUSH1 0x20 PUSH0 KECCAK256 SWAP1 PUSH1 0x3 MUL ADD PUSH0 SWAP1 SWAP2 SWAP1 SWAP2 SWAP1 SWAP2 POP PUSH0 DUP3 ADD PUSH0 SWAP1 SLOAD SWAP1 PUSH2 0x100 EXP SWAP1 DIV PUSH20 0xFFFFFFFFFFFFFFFFFFFFFFFFFFFFFFFFFFFFFFFF AND DUP2 PUSH0 ADD PUSH0 PUSH2 0x100 EXP DUP2 SLOAD DUP2 PUSH20 0xFFFFFFFFFFFFFFFFFFFFFFFFFFFFFFFFFFFFFFFF MUL NOT AND SWAP1 DUP4 PUSH20 0xFFFFFFFFFFFFFFFFFFFFFFFFFFFFFFFFFFFFFFFF AND MUL OR SWAP1 SSTORE POP PUSH1 0x1 DUP3 ADD SLOAD DUP2 PUSH1 0x1 ADD SSTORE PUSH1 0x2 DUP3 ADD SLOAD DUP2 PUSH1 0x2 ADD SSTORE POP POP PUSH0 PUSH1 0x9 PUSH0 PUSH2 0x100 EXP DUP2 SLOAD DUP2 PUSH1 0xFF MUL NOT AND SWAP1 DUP4 ISZERO ISZERO MUL OR SWAP1 SSTORE POP PUSH1 0x6 PUSH1 0x1 ADD SLOAD PUSH1 0x2 PUSH0 DUP3 DUP3 SLOAD PUSH2 0x4DA SWAP2 SWAP1 PUSH2 0xFAB JUMP JUMPDEST SWAP3 POP POP DUP2 SWAP1 SSTORE POP JUMPDEST JUMP JUMPDEST PUSH0 PUSH1 0x2 SLOAD SWAP1 POP SWAP1 JUMP JUMPDEST PUSH0 DUP1 SLOAD SWAP1 PUSH2 0x100 EXP SWAP1 DIV PUSH20 0xFFFFFFFFFFFFFFFFFFFFFFFFFFFFFFFFFFFFFFFF AND PUSH20 0xFFFFFFFFFFFFFFFFFFFFFFFFFFFFFFFFFFFFFFFF AND CALLER PUSH20 0xFFFFFFFFFFFFFFFFFFFFFFFFFFFFFFFFFFFFFFFF AND EQ PUSH2 0x57A JUMPI PUSH1 0x40 MLOAD PUSH32 0x8C379A000000000000000000000000000000000000000000000000000000000 DUP2 MSTORE PUSH1 0x4 ADD PUSH2 0x571 SWAP1 PUSH2 0x1074 JUMP JUMPDEST PUSH1 0x40 MLOAD DUP1 SWAP2 SUB SWAP1 REVERT JUMPDEST PUSH0 ISZERO ISZERO PUSH1 0x3 PUSH0 DUP4 PUSH20 0xFFFFFFFFFFFFFFFFFFFFFFFFFFFFFFFFFFFFFFFF AND PUSH20 0xFFFFFFFFFFFFFFFFFFFFFFFFFFFFFFFFFFFFFFFF AND DUP2 MSTORE PUSH1 0x20 ADD SWAP1 DUP2 MSTORE PUSH1 0x20 ADD PUSH0 KECCAK256 PUSH0 SWAP1 SLOAD SWAP1 PUSH2 0x100 EXP SWAP1 DIV PUSH1 0xFF AND ISZERO ISZERO EQ PUSH2 0x609 JUMPI PUSH1 0x40 MLOAD PUSH32 0x8C379A000000000000000000000000000000000000000000000000000000000 DUP2 MSTORE PUSH1 0x4 ADD PUSH2 0x600 SWAP1 PUSH2 0x10DC JUMP JUMPDEST PUSH1 0x40 MLOAD DUP1 SWAP2 SUB SWAP1 REVERT JUMPDEST PUSH1 0x4 DUP2 SWAP1 DUP1 PUSH1 0x1 DUP2 SLOAD ADD DUP1 DUP3 SSTORE DUP1 SWAP2 POP POP PUSH1 0x1 SWAP1 SUB SWAP1 PUSH0 MSTORE PUSH1 0x20 PUSH0 KECCAK256 ADD PUSH0 SWAP1 SWAP2 SWAP1 SWAP2 SWAP1 SWAP2 PUSH2 0x100 EXP DUP2 SLOAD DUP2 PUSH20 0xFFFFFFFFFFFFFFFFFFFFFFFFFFFFFFFFFFFFFFFF MUL NOT AND SWAP1 DUP4 PUSH20 0xFFFFFFFFFFFFFFFFFFFFFFFFFFFFFFFFFFFFFFFF AND MUL OR SWAP1 SSTORE POP PUSH1 0x1 PUSH1 0x3 PUSH0 DUP4 PUSH20 0xFFFFFFFFFFFFFFFFFFFFFFFFFFFFFFFFFFFFFFFF AND PUSH20 0xFFFFFFFFFFFFFFFFFFFFFFFFFFFFFFFFFFFFFFFF AND DUP2 MSTORE PUSH1 0x20 ADD SWAP1 DUP2 MSTORE PUSH1 0x20 ADD PUSH0 KECCAK256 PUSH0 PUSH2 0x100 EXP DUP2 SLOAD DUP2 PUSH1 0xFF MUL NOT AND SWAP1 DUP4 ISZERO ISZERO MUL OR SWAP1 SSTORE POP POP JUMP JUMPDEST PUSH0 PUSH1 0x1 SLOAD SWAP1 POP SWAP1 JUMP JUMPDEST DUP1 PUSH1 0x1 DUP2 SWAP1 SSTORE POP POP JUMP JUMPDEST PUSH1 0x60 PUSH1 0x4 DUP1 SLOAD DUP1 PUSH1 0x20 MUL PUSH1 0x20 ADD PUSH1 0x40 MLOAD SWAP1 DUP2 ADD PUSH1 0x40 MSTORE DUP1 SWAP3 SWAP2 SWAP1 DUP2 DUP2 MSTORE PUSH1 0x20 ADD DUP3 DUP1 SLOAD DUP1 ISZERO PUSH2 0x755 JUMPI PUSH1 0x20 MUL DUP3 ADD SWAP2 SWAP1 PUSH0 MSTORE PUSH1 0x20 PUSH0 KECCAK256 SWAP1 JUMPDEST DUP2 PUSH0 SWAP1 SLOAD SWAP1 PUSH2 0x100 EXP SWAP1 DIV PUSH20 0xFFFFFFFFFFFFFFFFFFFFFFFFFFFFFFFFFFFFFFFF AND PUSH20 0xFFFFFFFFFFFFFFFFFFFFFFFFFFFFFFFFFFFFFFFF AND DUP2 MSTORE PUSH1 0x20 ADD SWAP1 PUSH1 0x1 ADD SWAP1 DUP1 DUP4 GT PUSH2 0x70C JUMPI JUMPDEST POP POP POP POP POP SWAP1 POP SWAP1 JUMP JUMPDEST CALLVALUE PUSH1 0x2 PUSH0 DUP3 DUP3 SLOAD PUSH2 0x770 SWAP2 SWAP1 PUSH2 0xF78 JUMP JUMPDEST SWAP3 POP POP DUP2 SWAP1 SSTORE POP JUMP JUMPDEST PUSH1 0x1 ISZERO ISZERO PUSH1 0x3 PUSH0 CALLER PUSH20 0xFFFFFFFFFFFFFFFFFFFFFFFFFFFFFFFFFFFFFFFF AND PUSH20 0xFFFFFFFFFFFFFFFFFFFFFFFFFFFFFFFFFFFFFFFF AND DUP2 MSTORE PUSH1 0x20 ADD SWAP1 DUP2 MSTORE PUSH1 0x20 ADD PUSH0 KECCAK256 PUSH0 SWAP1 SLOAD SWAP1 PUSH2 0x100 EXP SWAP1 DIV PUSH1 0xFF AND ISZERO ISZERO EQ PUSH2 0x809 JUMPI PUSH1 0x40 MLOAD PUSH32 0x8C379A000000000000000000000000000000000000000000000000000000000 DUP2 MSTORE PUSH1 0x4 ADD PUSH2 0x800 SWAP1 PUSH2 0xF2D JUMP JUMPDEST PUSH1 0x40 MLOAD DUP1 SWAP2 SUB SWAP1 REVERT JUMPDEST PUSH1 0x2 SLOAD DUP2 GT ISZERO PUSH2 0x84E JUMPI PUSH1 0x40 MLOAD PUSH32 0x8C379A000000000000000000000000000000000000000000000000000000000 DUP2 MSTORE PUSH1 0x4 ADD PUSH2 0x845 SWAP1 PUSH2 0x1144 JUMP JUMPDEST PUSH1 0x40 MLOAD DUP1 SWAP2 SUB SWAP1 REVERT JUMPDEST DUP2 PUSH20 0xFFFFFFFFFFFFFFFFFFFFFFFFFFFFFFFFFFFFFFFF AND CALLER PUSH20 0xFFFFFFFFFFFFFFFFFFFFFFFFFFFFFFFFFFFFFFFF AND SUB PUSH2 0x8BC JUMPI PUSH1 0x40 MLOAD PUSH32 0x8C379A000000000000000000000000000000000000000000000000000000000 DUP2 MSTORE PUSH1 0x4 ADD PUSH2 0x8B3 SWAP1 PUSH2 0x11D2 JUMP JUMPDEST PUSH1 0x40 MLOAD DUP1 SWAP2 SUB SWAP1 REVERT JUMPDEST PUSH0 ISZERO ISZERO PUSH1 0x9 PUSH0 SWAP1 SLOAD SWAP1 PUSH2 0x100 EXP SWAP1 DIV PUSH1 0xFF AND ISZERO ISZERO EQ PUSH2 0x910 JUMPI PUSH1 0x40 MLOAD PUSH32 0x8C379A000000000000000000000000000000000000000000000000000000000 DUP2 MSTORE PUSH1 0x4 ADD PUSH2 0x907 SWAP1 PUSH2 0x123A JUMP JUMPDEST PUSH1 0x40 MLOAD DUP1 SWAP2 SUB SWAP1 REVERT JUMPDEST PUSH0 PUSH1 0x1 SLOAD SUB PUSH2 0xA32 JUMPI DUP2 PUSH20 0xFFFFFFFFFFFFFFFFFFFFFFFFFFFFFFFFFFFFFFFF AND PUSH2 0x8FC DUP3 SWAP1 DUP2 ISZERO MUL SWAP1 PUSH1 0x40 MLOAD PUSH0 PUSH1 0x40 MLOAD DUP1 DUP4 SUB DUP2 DUP6 DUP9 DUP9 CALL SWAP4 POP POP POP POP ISZERO DUP1 ISZERO PUSH2 0x95C JUMPI RETURNDATASIZE PUSH0 DUP1 RETURNDATACOPY RETURNDATASIZE PUSH0 REVERT JUMPDEST POP PUSH0 PUSH1 0x40 MLOAD DUP1 PUSH1 0x60 ADD PUSH1 0x40 MSTORE DUP1 DUP5 PUSH20 0xFFFFFFFFFFFFFFFFFFFFFFFFFFFFFFFFFFFFFFFF AND DUP2 MSTORE PUSH1 0x20 ADD DUP4 DUP2 MSTORE PUSH1 0x20 ADD PUSH0 DUP2 MSTORE POP SWAP1 POP PUSH1 0x5 DUP2 SWAP1 DUP1 PUSH1 0x1 DUP2 SLOAD ADD DUP1 DUP3 SSTORE DUP1 SWAP2 POP POP PUSH1 0x1 SWAP1 SUB SWAP1 PUSH0 MSTORE PUSH1 0x20 PUSH0 KECCAK256 SWAP1 PUSH1 0x3 MUL ADD PUSH0 SWAP1 SWAP2 SWAP1 SWAP2 SWAP1 SWAP2 POP PUSH0 DUP3 ADD MLOAD DUP2 PUSH0 ADD PUSH0 PUSH2 0x100 EXP DUP2 SLOAD DUP2 PUSH20 0xFFFFFFFFFFFFFFFFFFFFFFFFFFFFFFFFFFFFFFFF MUL NOT AND SWAP1 DUP4 PUSH20 0xFFFFFFFFFFFFFFFFFFFFFFFFFFFFFFFFFFFFFFFF AND MUL OR SWAP1 SSTORE POP PUSH1 0x20 DUP3 ADD MLOAD DUP2 PUSH1 0x1 ADD SSTORE PUSH1 0x40 DUP3 ADD MLOAD DUP2 PUSH1 0x2 ADD SSTORE POP POP DUP2 PUSH1 0x2 PUSH0 DUP3 DUP3 SLOAD PUSH2 0xA25 SWAP2 SWAP1 PUSH2 0xFAB JUMP JUMPDEST SWAP3 POP POP DUP2 SWAP1 SSTORE POP POP PUSH2 0xAE0 JUMP JUMPDEST PUSH0 PUSH1 0x40 MLOAD DUP1 PUSH1 0x60 ADD PUSH1 0x40 MSTORE DUP1 DUP5 PUSH20 0xFFFFFFFFFFFFFFFFFFFFFFFFFFFFFFFFFFFFFFFF AND DUP2 MSTORE PUSH1 0x20 ADD DUP4 DUP2 MSTORE PUSH1 0x20 ADD PUSH0 DUP2 MSTORE POP SWAP1 POP PUSH1 0x1 PUSH1 0x9 PUSH0 PUSH2 0x100 EXP DUP2 SLOAD DUP2 PUSH1 0xFF MUL NOT AND SWAP1 DUP4 ISZERO ISZERO MUL OR SWAP1 SSTORE POP DUP1 PUSH1 0x6 PUSH0 DUP3 ADD MLOAD DUP2 PUSH0 ADD PUSH0 PUSH2 0x100 EXP DUP2 SLOAD DUP2 PUSH20 0xFFFFFFFFFFFFFFFFFFFFFFFFFFFFFFFFFFFFFFFF MUL NOT AND SWAP1 DUP4 PUSH20 0xFFFFFFFFFFFFFFFFFFFFFFFFFFFFFFFFFFFFFFFF AND MUL OR SWAP1 SSTORE POP PUSH1 0x20 DUP3 ADD MLOAD DUP2 PUSH1 0x1 ADD SSTORE PUSH1 0x40 DUP3 ADD MLOAD DUP2 PUSH1 0x2 ADD SSTORE SWAP1 POP POP POP JUMPDEST POP POP JUMP JUMPDEST PUSH0 DUP2 MLOAD SWAP1 POP SWAP2 SWAP1 POP JUMP JUMPDEST PUSH0 DUP3 DUP3 MSTORE PUSH1 0x20 DUP3 ADD SWAP1 POP SWAP3 SWAP2 POP POP JUMP JUMPDEST PUSH0 JUMPDEST DUP4 DUP2 LT ISZERO PUSH2 0xB1B JUMPI DUP1 DUP3 ADD MLOAD DUP2 DUP5 ADD MSTORE PUSH1 0x20 DUP2 ADD SWAP1 POP PUSH2 0xB00 JUMP JUMPDEST PUSH0 DUP5 DUP5 ADD MSTORE POP POP POP POP JUMP JUMPDEST PUSH0 PUSH1 0x1F NOT PUSH1 0x1F DUP4 ADD AND SWAP1 POP SWAP2 SWAP1 POP JUMP JUMPDEST PUSH0 PUSH2 0xB40 DUP3 PUSH2 0xAE4 JUMP JUMPDEST PUSH2 0xB4A DUP2 DUP6 PUSH2 0xAEE JUMP JUMPDEST SWAP4 POP PUSH2 0xB5A DUP2 DUP6 PUSH1 0x20 DUP7 ADD PUSH2 0xAFE JUMP JUMPDEST PUSH2 0xB63 DUP2 PUSH2 0xB26 JUMP JUMPDEST DUP5 ADD SWAP2 POP POP SWAP3 SWAP2 POP POP JUMP JUMPDEST PUSH0 PUSH1 0x20 DUP3 ADD SWAP1 POP DUP2 DUP2 SUB PUSH0 DUP4 ADD MSTORE PUSH2 0xB86 DUP2 DUP5 PUSH2 0xB36 JUMP JUMPDEST SWAP1 POP SWAP3 SWAP2 POP POP JUMP JUMPDEST PUSH0 DUP2 SWAP1 POP SWAP2 SWAP1 POP JUMP JUMPDEST PUSH2 0xBA0 DUP2 PUSH2 0xB8E JUMP JUMPDEST DUP3 MSTORE POP POP JUMP JUMPDEST PUSH0 PUSH1 0x20 DUP3 ADD SWAP1 POP PUSH2 0xBB9 PUSH0 DUP4 ADD DUP5 PUSH2 0xB97 JUMP JUMPDEST SWAP3 SWAP2 POP POP JUMP JUMPDEST PUSH0 DUP1 REVERT JUMPDEST PUSH0 PUSH20 0xFFFFFFFFFFFFFFFFFFFFFFFFFFFFFFFFFFFFFFFF DUP3 AND SWAP1 POP SWAP2 SWAP1 POP JUMP JUMPDEST PUSH0 PUSH2 0xBEC DUP3 PUSH2 0xBC3 JUMP JUMPDEST SWAP1 POP SWAP2 SWAP1 POP JUMP JUMPDEST PUSH2 0xBFC DUP2 PUSH2 0xBE2 JUMP JUMPDEST DUP2 EQ PUSH2 0xC06 JUMPI PUSH0 DUP1 REVERT JUMPDEST POP JUMP JUMPDEST PUSH0 DUP2 CALLDATALOAD SWAP1 POP PUSH2 0xC17 DUP2 PUSH2 0xBF3 JUMP JUMPDEST SWAP3 SWAP2 POP POP JUMP JUMPDEST PUSH0 PUSH1 0x20 DUP3 DUP5 SUB SLT ISZERO PUSH2 0xC32 JUMPI PUSH2 0xC31 PUSH2 0xBBF JUMP JUMPDEST JUMPDEST PUSH0 PUSH2 0xC3F DUP5 DUP3 DUP6 ADD PUSH2 0xC09 JUMP JUMPDEST SWAP2 POP POP SWAP3 SWAP2 POP POP JUMP JUMPDEST PUSH2 0xC51 DUP2 PUSH2 0xB8E JUMP JUMPDEST DUP2 EQ PUSH2 0xC5B JUMPI PUSH0 DUP1 REVERT JUMPDEST POP JUMP JUMPDEST PUSH0 DUP2 CALLDATALOAD SWAP1 POP PUSH2 0xC6C DUP2 PUSH2 0xC48 JUMP JUMPDEST SWAP3 SWAP2 POP POP JUMP JUMPDEST PUSH0 PUSH1 0x20 DUP3 DUP5 SUB SLT ISZERO PUSH2 0xC87 JUMPI PUSH2 0xC86 PUSH2 0xBBF JUMP JUMPDEST JUMPDEST PUSH0 PUSH2 0xC94 DUP5 DUP3 DUP6 ADD PUSH2 0xC5E JUMP JUMPDEST SWAP2 POP POP SWAP3 SWAP2 POP POP JUMP JUMPDEST PUSH0 DUP2 MLOAD SWAP1 POP SWAP2 SWAP1 POP JUMP JUMPDEST PUSH0 DUP3 DUP3 MSTORE PUSH1 0x20 DUP3 ADD SWAP1 POP SWAP3 SWAP2 POP POP JUMP JUMPDEST PUSH0 DUP2 SWAP1 POP PUSH1 0x20 DUP3 ADD SWAP1 POP SWAP2 SWAP1 POP JUMP JUMPDEST PUSH2 0xCCF DUP2 PUSH2 0xBE2 JUMP JUMPDEST DUP3 MSTORE POP POP JUMP JUMPDEST PUSH0 PUSH2 0xCE0 DUP4 DUP4 PUSH2 0xCC6 JUMP JUMPDEST PUSH1 0x20 DUP4 ADD SWAP1 POP SWAP3 SWAP2 POP POP JUMP JUMPDEST PUSH0 PUSH1 0x20 DUP3 ADD SWAP1 POP SWAP2 SWAP1 POP JUMP JUMPDEST PUSH0 PUSH2 0xD02 DUP3 PUSH2 0xC9D JUMP JUMPDEST PUSH2 0xD0C DUP2 DUP6 PUSH2 0xCA7 JUMP JUMPDEST SWAP4 POP PUSH2 0xD17 DUP4 PUSH2 0xCB7 JUMP JUMPDEST DUP1 PUSH0 JUMPDEST DUP4 DUP2 LT ISZERO PUSH2 0xD47 JUMPI DUP2 MLOAD PUSH2 0xD2E DUP9 DUP3 PUSH2 0xCD5 JUMP JUMPDEST SWAP8 POP PUSH2 0xD39 DUP4 PUSH2 0xCEC JUMP JUMPDEST SWAP3 POP POP PUSH1 0x1 DUP2 ADD SWAP1 POP PUSH2 0xD1A JUMP JUMPDEST POP DUP6 SWAP4 POP POP POP POP SWAP3 SWAP2 POP POP JUMP JUMPDEST PUSH0 PUSH1 0x20 DUP3 ADD SWAP1 POP DUP2 DUP2 SUB PUSH0 DUP4 ADD MSTORE PUSH2 0xD6C DUP2 DUP5 PUSH2 0xCF8 JUMP JUMPDEST SWAP1 POP SWAP3 SWAP2 POP POP JUMP JUMPDEST PUSH0 PUSH2 0xD7E DUP3 PUSH2 0xBC3 JUMP JUMPDEST SWAP1 POP SWAP2 SWAP1 POP JUMP JUMPDEST PUSH2 0xD8E DUP2 PUSH2 0xD74 JUMP JUMPDEST DUP2 EQ PUSH2 0xD98 JUMPI PUSH0 DUP1 REVERT JUMPDEST POP JUMP JUMPDEST PUSH0 DUP2 CALLDATALOAD SWAP1 POP PUSH2 0xDA9 DUP2 PUSH2 0xD85 JUMP JUMPDEST SWAP3 SWAP2 POP POP JUMP JUMPDEST PUSH0 DUP1 PUSH1 0x40 DUP4 DUP6 SUB SLT ISZERO PUSH2 0xDC5 JUMPI PUSH2 0xDC4 PUSH2 0xBBF JUMP JUMPDEST JUMPDEST PUSH0 PUSH2 0xDD2 DUP6 DUP3 DUP7 ADD PUSH2 0xD9B JUMP JUMPDEST SWAP3 POP POP PUSH1 0x20 PUSH2 0xDE3 DUP6 DUP3 DUP7 ADD PUSH2 0xC5E JUMP JUMPDEST SWAP2 POP POP SWAP3 POP SWAP3 SWAP1 POP JUMP JUMPDEST PUSH32 0x4E6F2077697468726177616C7320796574000000000000000000000000000000 PUSH0 DUP3 ADD MSTORE POP JUMP JUMPDEST PUSH0 PUSH2 0xE21 PUSH1 0x11 DUP4 PUSH2 0xAEE JUMP JUMPDEST SWAP2 POP PUSH2 0xE2C DUP3 PUSH2 0xDED JUMP JUMPDEST PUSH1 0x20 DUP3 ADD SWAP1 POP SWAP2 SWAP1 POP JUMP JUMPDEST PUSH0 PUSH1 0x20 DUP3 ADD SWAP1 POP DUP2 DUP2 SUB PUSH0 DUP4 ADD MSTORE PUSH2 0xE4E DUP2 PUSH2 0xE15 JUMP JUMPDEST SWAP1 POP SWAP2 SWAP1 POP JUMP JUMPDEST PUSH32 0x4E6F207472616E73666572207265717565737420616374697665000000000000 PUSH0 DUP3 ADD MSTORE POP JUMP JUMPDEST PUSH0 PUSH2 0xE89 PUSH1 0x1A DUP4 PUSH2 0xAEE JUMP JUMPDEST SWAP2 POP PUSH2 0xE94 DUP3 PUSH2 0xE55 JUMP JUMPDEST PUSH1 0x20 DUP3 ADD SWAP1 POP SWAP2 SWAP1 POP JUMP JUMPDEST PUSH0 PUSH1 0x20 DUP3 ADD SWAP1 POP DUP2 DUP2 SUB PUSH0 DUP4 ADD MSTORE PUSH2 0xEB6 DUP2 PUSH2 0xE7D JUMP JUMPDEST SWAP1 POP SWAP2 SWAP1 POP JUMP JUMPDEST PUSH32 0x596F7520617265206E6F7420616E206F776E6572206F6620746869732077616C PUSH0 DUP3 ADD MSTORE PUSH32 0x6C65740000000000000000000000000000000000000000000000000000000000 PUSH1 0x20 DUP3 ADD MSTORE POP JUMP JUMPDEST PUSH0 PUSH2 0xF17 PUSH1 0x23 DUP4 PUSH2 0xAEE JUMP JUMPDEST SWAP2 POP PUSH2 0xF22 DUP3 PUSH2 0xEBD JUMP JUMPDEST PUSH1 0x40 DUP3 ADD SWAP1 POP SWAP2 SWAP1 POP JUMP JUMPDEST PUSH0 PUSH1 0x20 DUP3 ADD SWAP1 POP DUP2 DUP2 SUB PUSH0 DUP4 ADD MSTORE PUSH2 0xF44 DUP2 PUSH2 0xF0B JUMP JUMPDEST SWAP1 POP SWAP2 SWAP1 POP JUMP JUMPDEST PUSH32 0x4E487B7100000000000000000000000000000000000000000000000000000000 PUSH0 MSTORE PUSH1 0x11 PUSH1 0x4 MSTORE PUSH1 0x24 PUSH0 REVERT JUMPDEST PUSH0 PUSH2 0xF82 DUP3 PUSH2 0xB8E JUMP JUMPDEST SWAP2 POP PUSH2 0xF8D DUP4 PUSH2 0xB8E JUMP JUMPDEST SWAP3 POP DUP3 DUP3 ADD SWAP1 POP DUP1 DUP3 GT ISZERO PUSH2 0xFA5 JUMPI PUSH2 0xFA4 PUSH2 0xF4B JUMP JUMPDEST JUMPDEST SWAP3 SWAP2 POP POP JUMP JUMPDEST PUSH0 PUSH2 0xFB5 DUP3 PUSH2 0xB8E JUMP JUMPDEST SWAP2 POP PUSH2 0xFC0 DUP4 PUSH2 0xB8E JUMP JUMPDEST SWAP3 POP DUP3 DUP3 SUB SWAP1 POP DUP2 DUP2 GT ISZERO PUSH2 0xFD8 JUMPI PUSH2 0xFD7 PUSH2 0xF4B JUMP JUMPDEST JUMPDEST SWAP3 SWAP2 POP POP JUMP JUMPDEST PUSH32 0x596F7520617265206E6F742074686520636F6E747261637420686F6C6465722C PUSH0 DUP3 ADD MSTORE PUSH32 0x207468657265666F72652C20796F752063616E6E6F7420616464206F776E6572 PUSH1 0x20 DUP3 ADD MSTORE PUSH32 0x7320746F207468697320636F6E74726163740000000000000000000000000000 PUSH1 0x40 DUP3 ADD MSTORE POP JUMP JUMPDEST PUSH0 PUSH2 0x105E PUSH1 0x52 DUP4 PUSH2 0xAEE JUMP JUMPDEST SWAP2 POP PUSH2 0x1069 DUP3 PUSH2 0xFDE JUMP JUMPDEST PUSH1 0x60 DUP3 ADD SWAP1 POP SWAP2 SWAP1 POP JUMP JUMPDEST PUSH0 PUSH1 0x20 DUP3 ADD SWAP1 POP DUP2 DUP2 SUB PUSH0 DUP4 ADD MSTORE PUSH2 0x108B DUP2 PUSH2 0x1052 JUMP JUMPDEST SWAP1 POP SWAP2 SWAP1 POP JUMP JUMPDEST PUSH32 0x54686973206164647265737320697320616C726561647920616E206F776E6572 PUSH0 DUP3 ADD MSTORE POP JUMP JUMPDEST PUSH0 PUSH2 0x10C6 PUSH1 0x20 DUP4 PUSH2 0xAEE JUMP JUMPDEST SWAP2 POP PUSH2 0x10D1 DUP3 PUSH2 0x1092 JUMP JUMPDEST PUSH1 0x20 DUP3 ADD SWAP1 POP SWAP2 SWAP1 POP JUMP JUMPDEST PUSH0 PUSH1 0x20 DUP3 ADD SWAP1 POP DUP2 DUP2 SUB PUSH0 DUP4 ADD MSTORE PUSH2 0x10F3 DUP2 PUSH2 0x10BA JUMP JUMPDEST SWAP1 POP SWAP2 SWAP1 POP JUMP JUMPDEST PUSH32 0x496E737566696369656E742066756E647320696E2077616C6C65740000000000 PUSH0 DUP3 ADD MSTORE POP JUMP JUMPDEST PUSH0 PUSH2 0x112E PUSH1 0x1B DUP4 PUSH2 0xAEE JUMP JUMPDEST SWAP2 POP PUSH2 0x1139 DUP3 PUSH2 0x10FA JUMP JUMPDEST PUSH1 0x20 DUP3 ADD SWAP1 POP SWAP2 SWAP1 POP JUMP JUMPDEST PUSH0 PUSH1 0x20 DUP3 ADD SWAP1 POP DUP2 DUP2 SUB PUSH0 DUP4 ADD MSTORE PUSH2 0x115B DUP2 PUSH2 0x1122 JUMP JUMPDEST SWAP1 POP SWAP2 SWAP1 POP JUMP JUMPDEST PUSH32 0x596F752063616E6E6F74207472616E73666572206D6F6E657920746F20796F75 PUSH0 DUP3 ADD MSTORE PUSH32 0x72206F776E2077616C6C65740000000000000000000000000000000000000000 PUSH1 0x20 DUP3 ADD MSTORE POP JUMP JUMPDEST PUSH0 PUSH2 0x11BC PUSH1 0x2C DUP4 PUSH2 0xAEE JUMP JUMPDEST SWAP2 POP PUSH2 0x11C7 DUP3 PUSH2 0x1162 JUMP JUMPDEST PUSH1 0x40 DUP3 ADD SWAP1 POP SWAP2 SWAP1 POP JUMP JUMPDEST PUSH0 PUSH1 0x20 DUP3 ADD SWAP1 POP DUP2 DUP2 SUB PUSH0 DUP4 ADD MSTORE PUSH2 0x11E9 DUP2 PUSH2 0x11B0 JUMP JUMPDEST SWAP1 POP SWAP2 SWAP1 POP JUMP JUMPDEST PUSH32 0x5472616E7366657220617070726F76616C207374696C6C2070656E64696E6700 PUSH0 DUP3 ADD MSTORE POP JUMP JUMPDEST PUSH0 PUSH2 0x1224 PUSH1 0x1F DUP4 PUSH2 0xAEE JUMP JUMPDEST SWAP2 POP PUSH2 0x122F DUP3 PUSH2 0x11F0 JUMP JUMPDEST PUSH1 0x20 DUP3 ADD SWAP1 POP SWAP2 SWAP1 POP JUMP JUMPDEST PUSH0 PUSH1 0x20 DUP3 ADD SWAP1 POP DUP2 DUP2 SUB PUSH0 DUP4 ADD MSTORE PUSH2 0x1251 DUP2 PUSH2 0x1218 JUMP JUMPDEST SWAP1 POP SWAP2 SWAP1 POP JUMP INVALID LOG2 PUSH5 0x6970667358 0x22 SLT KECCAK256 0x2B PUSH25 0xA707750A47A1BCEAFCD0575071A046ADCAE508D641D5842AB 0x2B 0xAE PUSH26 0xA31664736F6C6343000816003300000000000000000000000000 "
				},
				"gasEstimates": {
					"creation": {
						"codeDepositCost": "950000",
						"executionCost": "49516",
						"totalCost": "999516"
					},
					"external": {
						"addOwners(address)": "77869",
						"approveWithdrawal()": "infinite",
						"deposit()": "infinite",
						"getApprovalLimit()": "2432",
						"getOwners()": "infinite",
						"getWalletBalance()": "2477",
						"setApprovalLimit(uint256)": "22537",
						"withdraw(address,uint256)": "infinite",
						"withrawalStatus()": "infinite"
					}
				},
				"methodIdentifiers": {
					"addOwners(address)": "5f3b1f3b",
					"approveWithdrawal()": "2c8b8bb3",
					"deposit()": "d0e30db0",
					"getApprovalLimit()": "7278a1fa",
					"getOwners()": "a0e67e2b",
					"getWalletBalance()": "329a27e7",
					"setApprovalLimit(uint256)": "74da612b",
					"withdraw(address,uint256)": "f3fef3a3",
					"withrawalStatus()": "16a4bc2b"
				}
			},
			"storageLayout": {
				"storage": [
					{
						"astId": 5,
						"contract": "multiSig.sol:MultiSignatureWallet",
						"label": "contractHolder",
						"offset": 0,
						"slot": "0",
						"type": "t_address"
					},
					{
						"astId": 7,
						"contract": "multiSig.sol:MultiSignatureWallet",
						"label": "approvalLimit",
						"offset": 0,
						"slot": "1",
						"type": "t_uint256"
					},
					{
						"astId": 9,
						"contract": "multiSig.sol:MultiSignatureWallet",
						"label": "balance",
						"offset": 0,
						"slot": "2",
						"type": "t_uint256"
					},
					{
						"astId": 13,
						"contract": "multiSig.sol:MultiSignatureWallet",
						"label": "isOwner",
						"offset": 0,
						"slot": "3",
						"type": "t_mapping(t_address,t_bool)"
					},
					{
						"astId": 16,
						"contract": "multiSig.sol:MultiSignatureWallet",
						"label": "owners",
						"offset": 0,
						"slot": "4",
						"type": "t_array(t_address)dyn_storage"
					},
					{
						"astId": 27,
						"contract": "multiSig.sol:MultiSignatureWallet",
						"label": "withrawals",
						"offset": 0,
						"slot": "5",
						"type": "t_array(t_struct(TransferRequest)23_storage)dyn_storage"
					},
					{
						"astId": 30,
						"contract": "multiSig.sol:MultiSignatureWallet",
						"label": "request",
						"offset": 0,
						"slot": "6",
						"type": "t_struct(TransferRequest)23_storage"
					},
					{
						"astId": 33,
						"contract": "multiSig.sol:MultiSignatureWallet",
						"label": "requestActive",
						"offset": 0,
						"slot": "9",
						"type": "t_bool"
					}
				],
				"types": {
					"t_address": {
						"encoding": "inplace",
						"label": "address",
						"numberOfBytes": "20"
					},
					"t_address_payable": {
						"encoding": "inplace",
						"label": "address payable",
						"numberOfBytes": "20"
					},
					"t_array(t_address)dyn_storage": {
						"base": "t_address",
						"encoding": "dynamic_array",
						"label": "address[]",
						"numberOfBytes": "32"
					},
					"t_array(t_struct(TransferRequest)23_storage)dyn_storage": {
						"base": "t_struct(TransferRequest)23_storage",
						"encoding": "dynamic_array",
						"label": "struct MultiSignatureWallet.TransferRequest[]",
						"numberOfBytes": "32"
					},
					"t_bool": {
						"encoding": "inplace",
						"label": "bool",
						"numberOfBytes": "1"
					},
					"t_mapping(t_address,t_bool)": {
						"encoding": "mapping",
						"key": "t_address",
						"label": "mapping(address => bool)",
						"numberOfBytes": "32",
						"value": "t_bool"
					},
					"t_struct(TransferRequest)23_storage": {
						"encoding": "inplace",
						"label": "struct MultiSignatureWallet.TransferRequest",
						"members": [
							{
								"astId": 18,
								"contract": "multiSig.sol:MultiSignatureWallet",
								"label": "recipient",
								"offset": 0,
								"slot": "0",
								"type": "t_address_payable"
							},
							{
								"astId": 20,
								"contract": "multiSig.sol:MultiSignatureWallet",
								"label": "amount",
								"offset": 0,
								"slot": "1",
								"type": "t_uint256"
							},
							{
								"astId": 22,
								"contract": "multiSig.sol:MultiSignatureWallet",
								"label": "approvals",
								"offset": 0,
								"slot": "2",
								"type": "t_uint256"
							}
						],
						"numberOfBytes": "96"
					},
					"t_uint256": {
						"encoding": "inplace",
						"label": "uint256",
						"numberOfBytes": "32"
					}
				}
			},
			"userdoc": {
				"kind": "user",
				"methods": {},
				"version": 1
			}
		}
	}
}